:020000040801F1
:100000000080012039590208498402082D9C01080A
:10001000F1170308F1170308F117030800000000A7
:100020000000000000000000000000004D840208F5
:100030005184020800000000558402085984020817
:10004000F1170308F1170308F1170308F117030864
:10005000F1170308F11703085D75020861750208BE
:1000600065750208697502086D750208DD80020871
:10007000ED800208FD8002080D8102081D81020842
:100080002D8102083D810208F1170308F1170308CA
:10009000F1170308F1170308F11703087175020837
:1000A000F1170308F1170308F1170308F117030804
:1000B0006D600208756002087D600208F117030890
:1000C000F1170308F1170308F1170308CD790208A7
:1000D000D97902081D7E0208297E0208F11703085B
:1000E000757502082D590208F1170308F117030866
:1000F000F1170308F1170308F11703084D810208EF
:10010000F1170308F117030885600208E579020872
:10011000F1170308F1170308F1170308F117030893
:100120005D8102086D8102087D8102088D810208CF
:100130009D810208F1170308F1170308F11703085E
:10014000F1170308F1170308F11703087962020891
:10015000AD810208BD810208CD810208357E02080A
:10016000F1170308F1170308F1170308F117030843
:10017000F1170308F1170308F11703080000000046
:10018000F1170308F1170308F1170308F117030823
:10019000F1790208F1170308F1170308F1170308B2
:1001A000F1170308F1170308F1170308F117030803
:1001B000F1170308000000002DE9F04F0378202B11
:1001C00083B00446894603D114F8013F202BFBD0AD
:1001D0002B2B08BF013494F800E0BEF12D0F00F086
:1001E00086809FED577BBEF1300F8DED007B00F0D8
:1001F0008A80BEF1000F00F09D80002600274FF09E
:10020000000ADFF84CB14FF000081CE01EF0B0F817
:1002100006460F4628461EF045F832463B461DF07E
:10022000F5FE524606460F465B46DDE90001B8F191
:10023000000F03D01EF0C6F9CDE9000114F801EF5C
:10024000BEF1000F14D0AEF13005092D52465B46C9
:1002500030463946DAD9B8F1000F18D1BEF12E0F69
:1002600015D114F801EF4FF00108BEF1000FEAD1EB
:1002700032463B46DDE900011EF07AF806460F469D
:10028000C9F800403046394603B0BDE8F08F0EF0A3
:10029000DF0EBEF1450F08D02378202B03D114F8D0
:1002A000013F202BFBD0002B41D1DDE9002330465C
:1002B00039461EF05DF8237806460F46002BDFD046
:1002C0004946601C0A2220F0C3FE21490246002054
:1002D0001EF0AEFB02460B46304639461EF048F88B
:1002E00006460F463046394603B0BDE8F08F94F815
:1002F00001E09FED157BBEF1300F8DED007B04F129
:1003000001047FF476AF637843F02003782B7FF409
:1003100074AF10224946204620F09AFE1DF0C2FF1D
:10032000DDE900231EF024F806460F46AAE7002662
:10033000084FA7E7002600279AE700BFAFF3008029
:10034000000000000000F03F000000000000F0BFCF
:10035000000024400000F87F2DE9F84F16460023E6
:10036000002204460D461EF075FA002840F09D80DC
:1003700000220023204629461EF062FA28B13022CE
:10038000002332707370BDE8F88F204629461FF0B5
:100390005FF91EF09DFA7BA3D3E90023814629462D
:1003A00020461EF057FA002800F08680B9F1000FB1
:1003B000C0F2BE804A4600206F491EF039FB02465B
:1003C0000B46204629461EF0FDF804460D4666A160
:1003D000D1E9000101274FF0000822462B461DF00D
:1003E000C7FF0022654B1DF011FE1EF05DFB002FC4
:1003F000CC464FF0FF3AC1464FF0000840F38580ED
:10040000DFF888E15E4C0122AEF1700945F6F32574
:100410004FF02E0BA94208BFA0424FF0300309D382
:10042000001B61EB0501A94208BFA04203F10103D3
:10043000F6D2DBB2337050EA010306F1010409D1B0
:10044000BA4210DACE4502F101020CD026467EE80F
:100450000245DFE7BA4204BF86F801B0B41CCE45BE
:1004600002F10102F2D1B8F1000F0DD02246302185
:1004700002F8011BC2F1010353442344002BF7DCB3
:100480002AEAEA7301331C44BCF1010F4CD0652306
:10049000BCF1000F2370C5BF2B236370611CA11C2E
:1004A0006046BDE8F84F0FF0F9BF05F100431D4667
:1004B0002D23337001365BE72DA3D3E900232046BB
:1004C00029461EF0E5F900287FF470AFB9F10E0F50
:1004D00009F101073DDDA9F10E0842460020264939
:1004E0001EF0A6FA02460B46204629461EF06AF880
:1004F0000022224B1DF08AFD1EF0D6FA002FA9F132
:100500000F0A4FF0010C3FF77BAF334630222E2409
:1005100003F8022B74707FEA090618D01E4403F812
:10052000012BB342FBD16BE700232370BDE8F88FAA
:10053000C9F10002002010491EF07AFA02460B466B
:10054000204629461DF014FF04460D463FE71E468F
:1005500056E7C9F10E0200200749C8461EF068FAA6
:100560004FF0010939E700BF0000901EC4BCD6421D
:1005700050EFE2D6E41A4B44000024400000E03F74
:1005800000407A108DEDB5A0F7C6B03EF821030803
:1005900070B54FF0FF3005F0BFFF04466FF07F40AD
:1005A00005F0BAFF064620461DF06CFE00220C4BFB
:1005B0001DF0DEFE044630460D461DF063FE06A328
:1005C000D3E900231DF0FEFF02460B4620462946D4
:1005D0001DF01CFD70BD00BF0000E0DFFFFF6F439A
:1005E0000000F03D0000000008B511F09FFADFEDBB
:1005F0000C7A07EE100A67EE277A17EE900A1DF0C4
:1006000063FE05A3D3E900231DF0DCFF1EF060F9B3
:1006100008BD00BFAFF30080EA2E4454FB2119400F
:100620000000B4430000000008B511F093FADFEDBC
:100630000C7A07EE100A67EE277A17EE900A1DF083
:1006400043FE05A3D3E900231DF0BCFF1EF040F9D3
:1006500008BD00BFAFF30080EA2E4454FB211940CF
:100660000000B443000000004F4A21F000439342D1
:100670002DE970430D4604464FDC4C4A93420E462A
:100680000FDC45A3D3E900231DF0C0FC0022484B3A
:100690001EF0FEF8002856D02B4620461946BDE82D
:1006A0007083444A934242DCB3F1804F4BDD1EF02D
:1006B000D9FB2246804689462B46204629461DF016
:1006C00057FE00223A4B1DF0A1FC1FF0E9FB024649
:1006D0000B46404649461DF099FC02460B46002059
:1006E00033491DF06FFF424604460D464B464046D7
:1006F00049461DF08BFC0B460246294620461DF05C
:1007000085FC01F0FDFE04460B46002E0BDC03F1D8
:10071000004320461946BDE870830B4602461DF093
:1007200075FC04460B4620461946BDE870831EF052
:1007300099FB01F0E5FE1AA3D3E900231DF066FC46
:1007400004460B46E1E722462B46204629461DF08B
:100750000FFE80468946204629461EF083FB002274
:100760000446134B0D46404649461DF04FFC1FF012
:1007700097FB00220E4B1DF049FC02460B464046FB
:1007800049461DF01FFF22462B461DF03FFC00F09E
:10079000D3FA04460B46B8E79C7500883CE4377EE4
:1007A000EF39FAFE422EE63FFFFFEF7FFFFF2F3EBD
:1007B0000000F03F0000B0412DE9F84FC24B21F09E
:1007C00000469E420D468A46044610DDBF4B9E42BF
:1007D00000F3B58000F0B080BD4BBE49BE4CBAF10D
:1007E000000FD8BF0B4620461946BDE8F88FBB4B1B
:1007F0009E4200F3C180A3F1DE739E4240F3AB80C2
:100800004FF0FF3B22462B46204629461DF0B0FD07
:1008100002460B46804689461DF0AAFD92A3D3E905
:10082000002306460F461DF0A3FD91A3D3E9002344
:100830001DF0ECFB32463B461DF09AFD8EA3D3E93A
:1008400000231DF0E3FB32463B461DF091FD8CA3D7
:10085000D3E900231DF0DAFB32463B461DF088FD4C
:1008600089A3D3E900231DF0D1FB32463B461DF09E
:100870007FFD87A3D3E900231DF0C8FB42464B460A
:100880001DF076FD84A3D3E90023804689463046D7
:1008900039461DF06DFD82A3D3E900231DF0B4FBA2
:1008A00032463B461DF064FD7FA3D3E900231DF0D3
:1008B000ABFB32463B461DF05BFD7DA3D3E9002335
:1008C0001DF0A2FB32463B461DF052FD7AA3D3E950
:1008D00000231DF099FB32463B461DF049FDBBF15C
:1008E000FF3F02460B466ED0404649461DF08EFB48
:1008F00022462B461DF03CFD794E7A4B4FEACB0B3E
:100900005E449B44DBE900231DF07EFB22462B4620
:100910001DF07AFB0B460246D6E900011DF074FB80
:10092000BAF1000F04460B46BFF65DAF01F100437C
:1009300020461946BDE8F88F00283FF44DAF224607
:100940002B46204629461DF061FB04460B462046F7
:100950001946BDE8F88F5AA3D3E900231DF056FBD2
:100960000022614B1DF094FF00283FF449AF2B4655
:1009700020461946BDE8F88F1EF074FA5B4B9E4284
:1009800004460D4630DCA3F550239E4255DC02465A
:100990000B461DF03BFB0022534B1DF035FB0022A4
:1009A00006460F464FF08043204629461DF02EFB99
:1009B00002460B46304639461DF004FE4FF0000B50
:1009C00004460D461EE7404649461DF01FFB2246E1
:1009D0002B461DF0CDFC0B460246294620461DF055
:1009E00013FB04460B46FEE6414B9E421ADC0022F6
:1009F000404B1DF009FB002206460F463D4B2046AA
:100A000029461DF0B5FC0022374B1DF0FFFA0246C7
:100A10000B46304639461DF0D5FD4FF0020B04461B
:100A20000D46EFE602460B46002033491DF0CAFD95
:100A30004FF0030B04460D46E4E600222A4B1DF05E
:100A4000E3FA002206460F46274B204629461DF0B2
:100A5000DDFA02460B46304639461DF0B3FD4FF035
:100A6000010B04460D46CDE611DA22E33AAD903F84
:100A7000EB0D76244B7BA93F513DD0A0660DB13FD5
:100A80006E204CC5CD45B73FFF8300922449C23F3D
:100A90000D5555555555D53F2F6C6A2C44B4A2BF02
:100AA0009AFDDE522DDEAD3F6D9A74AFF2B0B33FCA
:100AB000711623FEC671BC3FC4EB98999999C93F42
:100AC0009C7500883CE4377EFFFF0F440000F07FF8
:100AD000FB21F93FFB21F9BF182D4454FFFFDB3FF9
:100AE00008220308282203080000F03FFFFFF23F1E
:100AF000FF7F03400000F83F0000F0BF000000004F
:100B00002DE9F047C1F30A59A9F2FF36132E0B461F
:100B10000D46044607468846824622DC002E4FDBFF
:100B20003D4A42FA06F901EA090202431ED038A3FF
:100B3000D3E900231DF06AFA002200231DF0A8FE6D
:100B400050B1002D04DD4FF4801343FA06F6B04493
:100B500028EA09054FF0000A544629462046BDE818
:100B6000F087332E06DDB6F5806F3DD0194620465E
:100B7000BDE8F087A9F213494FF0FF3222FA09F9D4
:100B800010EA090FF2D022A3D3E900231DF03EFAA8
:100B9000002200231DF07CFE0028DDD0002D09DDA1
:100BA000142E2FD00123C6F1340603FA06F63719A6
:100BB00028BF9844454627EA090A54462946CDE706
:100BC00013A3D3E900231DF021FA002200231DF016
:100BD0005FFE0028C0D0002D0FDB55EA040709D0C6
:100BE0004FF0000A0D4DB7E702460B461DF00EFA16
:100BF0000446BCE7BA463D46AEE74FF0000A4FF068
:100C00000045A9E705F10108D4E700BFAFF3008074
:100C10009C7500883CE4377EFFFF0F000000F03F2A
:100C2000C1F30A522DE9F843A2F2FF36132E0B4608
:100C30000D460446884607461DDC002E40DB3C4A34
:100C400042FA06F901EA09020243864618D036A3A1
:100C5000D3E900231DF0DAF9002200231DF018FE6D
:100C600020B1002D42DB28EA090500273C46294631
:100C70002046BDE8F883332E06DDB6F5806F2FD011
:100C800019462046BDE8F883A2F213424FF0FF391F
:100C900029FA02F910EA090FF2D023A3D3E90023BD
:100CA0001DF0B4F9002200231DF0F2FD0028DDD074
:100CB000002D21DB454627EA09073C462946D7E7B0
:100CC00019A3D3E900231DF0A1F9002200231DF090
:100CD000DFFD0028CAD0002D19DB00273D46C5E7FF
:100CE00002460B461DF092F90446CAE74FF4801302
:100CF00043FA06F6B044B6E7142E10D00123C6F12D
:100D0000340603FA06F6371928BF9844D2E725F0CF
:100D10000042084B224318BF1D460027A6E705F1F5
:100D20000108C7E7AFF300809C7500883CE4377E7C
:100D3000FFFF0F000000F0BF2DE9F04FD64B9942A6
:100D400089B00E460F46824613DCD44B21F0004496
:100D50009C4218DD0022D24B1DF072FD002879D094
:100D6000002200230020CF491DF02CFC09B0BDE873
:100D7000F08FCD4B99422FDD524633461DF046F998
:100D800009B0BDE8F08FC94B9C4270DDC84B1F44D1
:100D90009F427ED8504631460022C64B1DF036F9A0
:100DA0004FEA215BABF2FF3BBBF1000F04460D465F
:100DB0000F4640F3E081524633461DF025F90246C6
:100DC0000B460020BB491DF01FF922462B461DF0A3
:100DD000F9FBCDE900010BE0B74B9F42DADD0022C1
:100DE0000023CDE900234FEA275B5446ABF2FF3BDB
:100DF000B24BC7F313079F4247F07F5500F3E780DC
:100E000045F44015204629460022AA4B1DF0FCF867
:100E1000002204460D46AA4B1DF0AAFA22462B4694
:100E20001DF0A6FAA246CDE902012E46804689466B
:100E3000002F3AD100220023204629461DF000FD54
:100E4000002800F0CE80BBF1000F40F0768100203A
:100E5000014695E752463346504631461DF0D4F8D8
:100E600002460B461DF0AEFB09B0BDE8F08F002234
:100E7000944B1DF0CBF8002200231DF009FD002843
:100E800000F0CC80904B9C4200F3C8805046314625
:100E900076E700228A4B1DF06BFA524633461DF06E
:100EA00067FA4FF0000B8046894600224FF08043DE
:100EB000504631461DF0AAF802460B4650463146D0
:100EC0001DF080FB02460B46CDE902231DF050FACF
:100ED0005DA3D3E9002304460D461DF049FA5CA347
:100EE000D3E900231DF092F822462B461DF040FA6C
:100EF00059A3D3E900231DF089F822462B461DF0A3
:100F000037FA57A3D3E900231DF080F822462B4679
:100F10001DF02EFA54A3D3E900231DF077F82246E2
:100F20002B461DF025FA52A3D3E900231DF06EF8DD
:100F300022462B461DF01CFA4FA3D3E900231DF0D7
:100F400065F822462B461DF013FA04460D46BBF108
:100F5000000F00F0BB8058461DF0A4F948A3D3E968
:100F60000023CDE904011DF003FA4246CDE9060154
:100F70004B46204629461DF049F8DDE902231DF0C5
:100F8000F7F941A3D3E9002304460D46DDE9040146
:100F90001DF0EEF9DDE900231DF038F802460B469E
:100FA000204629461DF032F802460B464046494687
:100FB0001DF02AF8524633461DF026F802460B462D
:100FC000DDE906011DF020F809B0BDE8F08F45F419
:100FD0000015C7F5801720462946BF100BF1010BFD
:100FE00012E72BA3D3E90023204629461DF0C0F9C0
:100FF00002460B4600202F491DF006F8DDE90223CA
:101000001DF0B6F906460F46BBF1000F6DD1024642
:101010000B46204629461CF0F7FFB1E65246334600
:10102000504631461DF0A4F90022254B1DF0A0F9D1
:1010300002460B46504631461CF0E6FF09B0BDE8BB
:10104000F08F00BFAFF3008044523EDF12F1C23F89
:101050009FC678D0099AC33FDE03CB966446C73F4C
:10106000AF788E1DC571CC3F599322942449D23F4D
:1010700004FA97999999D93F935555555555E53F98
:101080000000E0FE422EE63F763C7935EF39EA3D3E
:10109000555555555555E53F7982DA3FFFFFEF3FEE
:1010A0000000F0BF000050C3FFFFEF7FFFFF1F3EB7
:1010B0003C412D400000F03FFFFF3F439DA0060054
:1010C0000000E03F00005043FFFF8F3C42464B468C
:1010D0001CF09CFFDDE902231DF04AF902460B4695
:1010E000404649461CF090FFA2E758461DF0DAF84A
:1010F00027A3D3E9002382468B461DF039F926A3A6
:10110000D3E9002380468946504659461DF030F900
:10111000DDE900231CF07AFF02460B4630463946D3
:101120001CF072FF22462B461CF06EFF02460B4657
:10113000404649461CF068FF22E658461DF0B2F8CA
:1011400015A3D3E9002306460F461DF011F9DDE98A
:1011500000231CF05BFF0EA3D3E9002304460D46D9
:10116000304639461DF004F902460B462046294612
:101170001CF04CFF04E60022094B1CF045FF024620
:101180000B46504631461CF03FFF1EE6AFF3008091
:101190000000E0FE422EE63F763C7935EF39EA3D2D
:1011A0000000F03F0000000008B51EF0D5F904A3D0
:1011B000D3E900231DF006FA08BD00BFAFF300809D
:1011C000EF39FAFE422EE63F2DE9F043DFF8B48016
:1011D0008BB004460D4600F06BFF98F900300133E8
:1011E00006460F462BD022462B46204629461DF0A8
:1011F00059FB814618BB204629461DF033FE1CA32F
:10120000D3E900231DF044FBC8B11B4A98F9003014
:10121000CDF820900321CDE90445CDE902458DE8C4
:1012200006008BB9154B4FF06042CDE906236846A6
:101230001FF07AFD70B1089B9BB9DDE90667304667
:1012400039460BB0BDE8F0830D490020022BCDE9F3
:101250000601ECD11FF0B8FE22230360089B002B8F
:10126000EBD01FF0B1FE089B0360E6E7AFF3008010
:101270007DF8B98FCE338640043F0308FFFFEF4768
:101280000000F07F920300202DE9F043DFF8E480B6
:101290008BB004460D4600F0BBFF98F900300133D7
:1012A00006460F4633D0204629461FF037FD70B35F
:1012B00029A3D3E90023204629461DF0E9FA8146F7
:1012C00050BB27A3D3E90023204629461DF0C2FACC
:1012D000E8B198F90030244ACDF820900426002087
:1012E0000021022BCDE90445CDE90245009601928B
:1012F000CDE9060129D068461FF016FD28B3089BEA
:101300001BB11FF061FE089B0360DDE906673046F4
:1013100039460BB0BDE8F083134A98F900300192CA
:1013200003210022CDE90445CDE902450091089250
:101330002BB90E4B4FF06042CDE90623DBE70C4999
:101340000020022BCDE90601D5D11FF03DFE22235E
:101350000360D4E7AFF30080EF39FAFE422E8640F7
:1013600051302DD5104987C00C3F0308FFFFEF47D0
:101370000000F07F920300202DE9F84FC44E21F0C9
:101380000043B3420C4605460DDD03F1404303F52F
:101390008013034340F0B980002940F340810020CE
:1013A0000021BDE8F88FBB4EB34240F3A680002970
:1013B000C0F2788102460B460020B7491CF024FE9B
:1013C0000022B64B1CF0D4FF04460D461EF068FD0B
:1013D00095A3D3E9002389468046294620461CF080
:1013E000C7FF93A3D3E900231CF010FE22462B462F
:1013F0001CF0BEFF90A3D3E900231CF005FE22469B
:101400002B461CF0B5FF8EA3D3E900231CF0FEFD94
:1014100022462B461CF0ACFF8BA3D3E900231CF023
:10142000F3FD22462B461CF0A3FF89A3D3E900233A
:101430001CF0ECFD22462B461CF09AFF86A3D3E954
:10144000002382468B46204629461CF091FF84A348
:10145000D3E900231CF0D8FD22462B461CF088FF60
:1014600081A3D3E900231CF0D1FD22462B461CF0BA
:101470007FFF7FA3D3E900231CF0C6FD22462B4645
:101480001CF076FF0022844B1CF0C0FD02460B4688
:10149000504659461DF096F842464B461CF068FFF0
:1014A000002682468B4632464B46304649461CF063
:1014B0005FFF02460B46204629461CF0A5FD32463A
:1014C00004460D464B46404649461CF09FFD0246E9
:1014D0000B46204629461DF075F802460B4650463D
:1014E00059461CF093FD32464B461CF08FFD0246D8
:1014F0000B461CF08BFDBDE8F88F694A93420EDC69
:101500005DA1D1E90001BDE8F88F02460B461CF051
:101510007BFD02460B461DF055F8BDE8F88F0246EC
:101520000B461CF025FF40A3D3E9002306460F46D7
:101530001CF01EFF3EA3D3E900231CF067FD3246DA
:101540003B461CF015FF3CA3D3E900231CF05CFDD7
:1015500032463B461CF00CFF39A3D3E900231CF0B4
:1015600055FD32463B461CF003FF37A3D3E9002369
:101570001CF04AFD32463B461CF0FAFE34A3D3E988
:1015800000231CF043FD32463B461CF0F1FE32A323
:10159000D3E9002380468946304639461CF0E8FEF0
:1015A0002FA3D3E900231CF02FFD32463B461CF04D
:1015B000DFFE2DA3D3E900231CF028FD32463B4675
:1015C0001CF0D6FE2AA3D3E900231CF01DFD3246F1
:1015D0003B461CF0CDFE00222F4B1CF017FD0246AF
:1015E0000B46404649461CF0EDFF2A4623461CF0B8
:1015F000BFFE02460B4622A1D1E900011CF004FD0A
:1016000002460B46284621461CF0FEFC02460B46CD
:1016100019A1D1E900011CF0F7FCBDE8F88F1AA16F
:10162000D1E90001BDE8F88F09F7FD0DE13D023F6A
:1016300088B20175E0EF493F3B8F68B52882A43F2F
:101640005544880E55C1C93F7D6FEB0312D6D43F78
:10165000555555555555C53F82922EB1C5B8B33F26
:1016600059018D1B6C06E63FC88A599CE52A00404B
:101670004B2D8A1C273A0340182D4454FB21F93F77
:10168000075C143326A6913C182D4454FB210940D5
:10169000FFFFEF3FFFFFDF3F0000F03F0000E03FB4
:1016A0000000603C00225C4B1CF0B0FC00225B4B55
:1016B0001CF05EFE40A3D3E9002304460D461CF057
:1016C00057FE3FA3D3E900231CF0A0FC22462B4683
:1016D0001CF04EFE3CA3D3E900231CF095FC2246EF
:1016E0002B461CF045FE3AA3D3E900231CF08EFCE8
:1016F00022462B461CF03CFE37A3D3E900231CF006
:1017000083FC22462B461CF033FE35A3D3E900238D
:101710001CF07CFC22462B461CF02AFE80468946A3
:10172000204629461EF0BCFB2FA3D3E90023064622
:101730000F46204629461CF01BFE2DA3D3E90023AB
:101740001CF062FC22462B461CF012FE2AA3D3E9B1
:1017500000231CF05BFC22462B461CF009FE28A34C
:10176000D3E900231CF050FC22462B461CF000FE5F
:101770000022294B1CF04AFC02460B4640464946D3
:101780001CF020FF32463B461CF0F2FD1EA3D3E9BD
:1017900000231CF039FC32463B461CF037FC024665
:1017A0000B461CF033FC02460B4619A1D1E900019F
:1017B0001CF02AFCBDE8F88F09F7FD0DE13D023F62
:1017C00088B20175E0EF493F3B8F68B52882A43F9E
:1017D0005544880E55C1C93F7D6FEB0312D6D43FE7
:1017E000555555555555C53F82922EB1C5B8B33F95
:1017F00059018D1B6C06E63FC88A599CE52A0040BA
:101800004B2D8A1C273A0340075C143326A6913CD3
:10181000182D4454FB2109400000F03F0000E03F38
:10182000434A91422DE9F8430C46054639DD414AC9
:10183000914209DD02F17952914240DD02460B46A8
:101840001CF0E4FBBDE8F88301F1404202F5801290
:10185000024330D0B1F1804F3ADC0022364B1CF00D
:10186000D3FB02460B4604460D461CF0CFFB224636
:1018700006460F462B46204629461CF079FD0246B7
:101880000B46304639461CF0C1FB1EF009FB0B46E7
:101890000246294620461CF0B9FBBDE8F843FFF795
:1018A0004BBA02460B461CF0AFFB02460B461CF03F
:1018B00089FEBDE8F88300200021BDE8F88300F030
:1018C0001FFE19A3D3E900231CF0A0FBBDE8F88399
:1018D00002460B461CF04CFD0022174B1CF094FBFB
:1018E0001EF0DEFA2A4680468946234628462146CF
:1018F0001CF08CFB424606460F464B4628462146C6
:101900001CF084FB02460B4600200B491CF05AFEDB
:101910000B460246394630461CF076FBBDE8F843DC
:1019200000F0EEBDAFF30080EF39FAFE422EE63F45
:10193000FFFFEF3FFFFFAF410000F03F000000005E
:101940002DE9F047C44B21F00048984584B00D467E
:10195000044616DD08F1404808F58018034658EAA9
:10196000030326D002460B461CF04EFB0B460246F4
:101970001CF028FE04460B462046194604B0BDE87C
:10198000F087B64B98458A462EDCB8F1795F80F235
:101990006D8195A3D3E900231CF038FB0022B04BE6
:1019A0001CF076FF00B32B462046194604B0BDE874
:1019B000F0878FA3D3E900231CF0DAFC8EA3D3E9D0
:1019C000002306460F46204629461CF0D1FC02465D
:1019D0000B46304639461CF019FB04460B462046A0
:1019E000194604B0BDE8F087204629461DF03AFAB2
:1019F00002460B4600209A491CF006FB0022994B38
:101A00001CF0B6FC7EA3D3E9002304460D461CF06F
:101A1000AFFC7DA3D3E900231CF0F8FA22462B4645
:101A20001CF0A6FC7AA3D3E900231CF0EDFA2246B1
:101A30002B461CF09DFC78A3D3E900231CF0E6FAAA
:101A400022462B461CF094FC75A3D3E900231CF01E
:101A5000DBFA22462B461CF08BFC73A3D3E9002350
:101A60001CF0D4FA22462B461CF082FC70A3D3E96A
:101A70000023CDE90001204629461CF079FC6EA325
:101A8000D3E900231CF0C0FA22462B461CF070FC60
:101A90006BA3D3E900231CF0B9FA22462B461CF0B5
:101AA00067FC69A3D3E900231CF0AEFA22462B465B
:101AB0001CF05EFC6A4B00221CF0A8FACDE9020182
:101AC000204629461EF0ECF9674B984506460F461E
:101AD00067DCDDE90223DDE900011CF073FD32461D
:101AE000CDE900013B46304639461CF08FFA0246EC
:101AF0000B46DDE900011CF03BFC4FF00008CDE98E
:101B0000000142463B46404639461CF031FC024645
:101B10000B46204629461CF077FA424604460D46FD
:101B20003B46304639461CF071FA02460B462046C9
:101B300029461CF047FD02460B461CF067FA024698
:101B40000B462DA1D1E900011CF05EFA02460B46BE
:101B5000DDE900011CF058FA424604460D463B46BA
:101B6000404639461CF052FA02460B4638A1D1E9EC
:101B700000011CF049FA02460B46204629461CF09B
:101B800043FA0B46024632A1D1E900011CF03CFAAF
:101B900004460B46BAF1000F3FF7EEAE03F10043E7
:101BA000EAE6DDE90223DDE900011CF00BFD324627
:101BB0003B461CF0DDFB32463B461CF027FA024652
:101BC0000B461CF023FA0CA3D3E900231CF01CFAEB
:101BD0000B46024606A1D1E900011CF015FA0446A5
:101BE0000B46D7E7AFF300809C7500883CE4377E56
:101BF000182D4454FB21F93F075C143326A6913C71
:101C000009F7FD0DE13D023F88B20175E0EF493F64
:101C10003B8F68B52882A43F5544880E55C1C93F03
:101C20007D6FEB0312D6D43F555555555555C53FDD
:101C300082922EB1C5B8B33F59018D1B6C06E63FA9
:101C4000C88A599CE52A00404B2D8A1C273A03403C
:101C5000182D4454FB21E93FFFFFEF3FFFFFDF3F1B
:101C60000000F03F0000E03F3233EF3F02460B46FA
:101C70001CF07EFB38A3D3E9002306460F461CF078
:101C800077FB37A3D3E900231CF0C0F932463B466B
:101C90001CF06EFB34A3D3E900231CF0B5F93246E7
:101CA0003B461CF065FB32A3D3E900231CF0AEF9E0
:101CB00032463B461CF05CFB2FA3D3E900231CF00B
:101CC000A3F932463B461CF053FB2DA3D3E9002376
:101CD0001CF09CF932463B461CF04AFB2AA3D3E990
:101CE000002380468946304639461CF041FB28A334
:101CF000D3E900231CF088F932463B461CF038FB40
:101D000025A3D3E900231CF081F932463B461CF0A1
:101D10002FFB23A3D3E900231CF076F932463B4680
:101D20001CF026FB0022204B1CF070F902460B46EB
:101D3000404649461CF046FC22462B461CF018FB48
:101D400022462B461CF062F904460B4620461946F3
:101D500004B0BDE8F08700BF09F7FD0DE13D023F8B
:101D600088B20175E0EF493F3B8F68B52882A43FF8
:101D70005544880E55C1C93F7D6FEB0312D6D43F41
:101D8000555555555555C53F82922EB1C5B8B33FEF
:101D900059018D1B6C06E63FC88A599CE52A004014
:101DA0004B2D8A1C273A03400000F03F0000000042
:101DB0002DE9F84F5442144323F00049704E49EA8C
:101DC000D474B44286460F4640D84442044321F0BE
:101DD000004B4BEAD474B4428A4637D803F14044EE
:101DE00004F5801414434AD09C1704F0020444EA1A
:101DF000D17450EA0B0131D052EA090137D0B14514
:101E000052D0B34533D0ABEB09094FEA2959B9F1A8
:101E10003C0F3BDC002B66DB704639461CF0D2FBE6
:101E20001DF020F8FEF7C8FC012C58D0022C48D039
:101E3000002C5ED040A3D3E900231CF0E5F840A3BA
:101E4000D3E900231CF0E0F8BDE8F88F10461946EE
:101E500072463B461CF0DAF8BDE8F88F022C19D028
:101E6000032C10D138A1D1E90001BDE8F88FBAF1F7
:101E7000000F14DB36A1D1E90001BDE8F88FBDE801
:101E8000F84FFEF799BC3946BDE8F88F30A1D1E98B
:101E90000001C9E72AA1D1E90001BDE8F88F2EA110
:101EA000D1E90001BDE8F88FCB4524D0022CF1D058
:101EB000032CD7D0012C4FF0000027D00021BDE823
:101EC000F88F1DA3D3E900231CF09EF802460B46B1
:101ED0001BA1D1E900011CF097F8BDE8F88F01F1D2
:101EE0000041BDE8F88F19F13C0F95DA0020002180
:101EF0009AE7BDE8F88F022C16D0032C0FD0012CE6
:101F000008D017A1D1E90001BDE8F88F4FF00041DA
:101F1000BDE8F88F14A1D1E90001BDE8F88F14A144
:101F2000D1E90001BDE8F88F13A1D1E90001BDE8B6
:101F3000F88F00BFAFF30080075C143326A6A13CE6
:101F4000182D4454FB210940182D4454FB2109C08D
:101F5000182D4454FB21F93F182D4454FB21F9BF9F
:101F6000182D4454FB21E93F182D4454FB21E9BFAF
:101F7000D221337F7CD902C0D221337F7CD9024069
:101F80000000F07F0000000043422DE9F0470343CA
:101F900021F00048424A48EAD373934206460F466E
:101FA00016D890454BD03F4B98458A461EDC3AA345
:101FB000D3E9002304461CF029F8002200231CF07A
:101FC00067FC002845D03B4620461946BDE8F0870F
:101FD00002460B461CF018F80B4602461CF0F2FABB
:101FE00004460B4620461946BDE8F0872E4B98451F
:101FF000044645462FDD0246434641461CF006F89E
:10200000224606460F464346002025491BF0FCFFAA
:1020100002460B46304639461CF0D4FAFEF78CFED9
:10202000224B00221CF0A4F9BAF1000F04460B4623
:10203000D8DA01F1004320461946BDE8F0870022B6
:1020400000231CF0BFFA04460B4620461946BDE8A3
:10205000F0873446454622462B46204629461BF04B
:10206000D5FF22462B4606460F461CF081F9224634
:10207000804689462B46002009491BF0C5FF0246D1
:102080000B46404649461CF09DFA32463B461BF043
:10209000BDFFC3E7AFF300809C7500883CE4377E4A
:1020A0000000F03FFFFF2F3EFFFFDF3F0000E03F5B
:1020B0004F4A2DE9F84321F0004494420B4605466F
:1020C0001BDC4C4A944222DD4B4A944263DD4B4A6E
:1020D00094427BDD4A4A944246DD0132944240D02C
:1020E00041A3D3E90023104619461CF041F90646E6
:1020F0000F4630463946BDE8F88302460B461CF0D1
:1021000037F906460F4630463946BDE8F8831CF0DD
:10211000A9FE02F0A9FC00223A4B804689461BF03A
:1021200075FFB4F1725F06460F46ECDB42464B4644
:10213000404649461CF01CF932463B4604460D46D3
:10214000304639461BF062FF02460B4620462946C0
:102150001CF038FA00222B4B1BF058FF06460F46A6
:10216000D1E7294A9042BBD8284619461CF07AFE8E
:102170000022264B1CF0FCF800F04AF8002204462E
:102180000D46224B1CF0F4F822462B461CF0F0F8CA
:1021900006460F46B7E71CF065FE00F039F800224E
:1021A0001A4B06460F461CF0E3F832463B460446FF
:1021B0000D46002015491CF005FA02460B46204644
:1021C00029461BF023FF06460F469CE71CF04AFEFB
:1021D00000F01EF800220D4B1CF0CAF806460F4610
:1021E00091E700BFAFF300809C7500883CE4377E28
:1021F000FFFFEF7F422ED63FFFFF3540412E864046
:10220000CD3386400000F03F7DF8B98F0000E03FFD
:102210002DE9F04FB04F21F00042BA4283B00C4696
:102220004FEAD17605460DD9AC4FBA4225D9C1F354
:102230001303034340F0EF800EB10020014603B0CA
:10224000BDE8F08FA64B9A4200F2CC80A54B9A4293
:1022500000F2DE808AA3D3E900231BF0D7FE002220
:10226000A14B1CF015FB002800F0058128462146F3
:1022700000229D4B1BF0CAFEE1E783A3D3E90023B4
:102280001CF006FB002840F0CB802846214680A3A6
:10229000D3E900231CF0DEFA0028CED1934B284668
:1022A00003EBC60621467CA3D3E900231CF060F8AB
:1022B000D6E900231BF0AAFE1CF00AFB80461BF0A7
:1022C000F1FF77A3D3E9002306460F461CF050F830
:1022D00002460B46284621461BF096FE72A3D3E920
:1022E0000023CDE90001304639461CF041F8824612
:1022F0008B4652465B46DDE900011BF085FE054634
:102300000C462A462346284621461CF031F868A38D
:10231000D3E9002306460F461CF02AF866A3D3E94A
:1023200000231BF071FE32463B461CF021F864A3EB
:10233000D3E900231BF06AFE32463B461CF018F836
:1023400061A3D3E900231BF05FFE32463B461CF03D
:102350000FF85FA3D3E900231BF058FE32463B463B
:102360001CF006F802460B46284621461BF04CFEA0
:1023700006460F462846214632463B46B8F1000F36
:1023800056D01BF0F5FF324604460D463B46002072
:102390004FF080411BF038FE02460B46204629468E
:1023A0001CF010F902460B46504659461BF02CFE15
:1023B000DDE900231BF028FE0B4602464A490020B7
:1023C0001BF022FE6FF47F7398454FDA08F57A7898
:1023D00001EB085100224FF0B8731BF0C9FF03B0A6
:1023E000BDE8F08F424B9A423FF658AF414BF400A4
:1023F0002344D3E900231BF007FE3F4BC6F101083D
:102400002344CDE90001D3E900ABA8EB060870E74F
:102410004FF0000875E702460B461BF0F7FD0EE78C
:1024200017A3D3E90023104619461BF0A1FF06E7C6
:102430001BF09EFF0022804689464FF080433046C5
:1024400039461BF0E1FD02460B46404649461CF06A
:10245000B9F82A4623461BF0D7FD02460B4600205A
:1024600021491BF0D1FD03B0BDE8F08F01EB08510D
:1024700003B0BDE8F08F804643E700BFAFF30080B4
:102480009C7500883CE4377EEF39FAFE422E864088
:1024900051302DD5104987C0FE822B654715F73F77
:1024A0000000E0FE422EE63F763C7935EF39EA3D0A
:1024B000D0A4BE726937663EF16BD2C541BDBB3E4A
:1024C0002CDE25AF6A56113F93BDBE166CC1663F28
:1024D0003E5555555555C53F412E8640FFFFEF7F70
:1024E000422ED63FFFFF2F3E0000F03F4822030858
:1024F000B1A2F03F58220308682203080000000040
:102500002DE9F04FB1F5801F85B006460F460B460A
:102510005ADA024621F00044224300F0F8800029F4
:10252000C0F27A810022D64B1BF022FFD54A0B461F
:10253000934206460F466FF0350C4ADCC3F3130591
:1025400005F5152E0EF6647E0EF4801E8EF07F5279
:1025500082F440121C1542EA0507A4F2FF346444D9
:102560000022C94B3046394604EB1E541BF04CFD8B
:10257000AB1CC3F31303022B82468B464FF00002C1
:1025800030DC00231CF05CF9002800F0C980002C2E
:1025900000F04B8120461BF085FEA5A3D3E9002364
:1025A00006460F461BF0E4FEA3A3D3E9002304462E
:1025B0000D46304639461BF0DBFE02460B462046F0
:1025C00029461BF023FD0AE0AE4A93424FF0000C6F
:1025D000B4DD32463B46304639461BF017FD05B0A8
:1025E000BDE8F08F4FF080431BF010FD02460B4614
:1025F000504659461BF0E6FF064620460F461BF0A4
:1026000051FE3246CDE900013B4630463946CDE920
:1026100002671BF0ADFE02460B46804689461BF062
:10262000A7FE87A3D3E9002306460F461BF0A0FEB2
:1026300085A3D3E900231BF0E9FC32463B461BF09F
:1026400097FE83A3D3E900231BF0E0FC32463B4610
:102650001BF08EFE80A3D3E900231BF0D7FC42467B
:102660004B461BF085FE7EA3D3E9002380468946B6
:10267000304639461BF07CFE7BA3D3E900231BF0D8
:10268000C5FC32463B461BF073FE79A3D3E9002319
:102690001BF0BCFC32463B461BF06AFE0B46024672
:1026A000494640461BF0B2FCA5F5C223C5F5D72527
:1026B000A3F27A4351351D43002D8046894656DDED
:1026C0000022724B504659461BF052FE52465B4662
:1026D0001BF04EFE06460F46002C68D132463B46A4
:1026E000404649461BF092FCDDE902231BF040FE08
:1026F00002460B46304639461BF086FC02460B4626
:10270000504659461BF080FC05B0BDE8F08F002212
:10271000002300205E491BF055FF05B0BDE8F08F97
:1027200055A3D3E90023504659461BF021FE02462B
:102730000B46002055491BF067FC524606460F46E3
:102740005B46504659461BF013FE02460B46304688
:1027500039461BF00DFE06460F46002C40F09A80CD
:1027600002460B46504659461BF04EFC37E7002CFC
:1027700000F0A4802EA3D3E90023DDE900011BF0C3
:10278000F7FD42464B4604460D46504659461BF05F
:102790003BFCDDE902231BF0EBFD27A3D3E900237B
:1027A00006460F46DDE900011BF0E2FD21E020A313
:1027B000D3E90023DDE900011BF0DAFD32463B4698
:1027C00004460D46404649461BF020FCDDE9022345
:1027D0001BF0CEFD18A3D3E9002380468946DDE92E
:1027E00000011BF0C5FD02460B46404649461BF062
:1027F0000DFC02460B46304639461BF005FC52469E
:102800005B461BF001FC02460B46204629461BF0A6
:10281000FBFB05B0BDE8F08F02460B461BF0F4FB56
:10282000002200231BF0CEFED9E600200021D6E6D0
:102830000000E0FE422EE63F763C7935EF39EA3D76
:1028400044523EDF12F1C23FDE03CB966446C73FDF
:10285000599322942449D23F935555555555E53FF8
:102860009FC678D0099AC33FAF788E1DC571CC3F03
:1028700004FA97999999D93F555555555555D53FCE
:1028800000005043FFFFEF7F0000F03F0000E03FFB
:10289000000050C320461BF005FD0FA3D3E9002321
:1028A000804689461BF064FD0DA3D3E9002304464E
:1028B0000D46404649461BF05BFD9AE702460B4633
:1028C000504659461BF0A0FBDDE902231BF050FDEA
:1028D00014E700BFAFF300800000E0FE422EE63FA9
:1028E000763C7935EF39EA3DB1F5801F2DE9F843A3
:1028F00004460D460B461ADA024621F000463243E2
:1029000059D000295FDB00223B4B1BF031FD3B4AD5
:102910000B4693420D4604466FF035010CDD22460E
:102920002B46204629461BF071FBBDE8F883334A4D
:1029300093424FF00001F2DC1815A0F2FF3008447A
:102940004FEAD0794844C3F313081BF0ABFCC9F538
:102950007F73033348EA035506460F46204629464F
:10296000FFF7CEFD1EA3D3E90023804689463046FB
:1029700039461BF0FDFC1CA3D3E9002304460D4699
:10298000404649461BF0F4FC02460B4620462946C9
:102990001BF03CFB16A3D3E9002304460D4630464A
:1029A00039461BF0E5FC02460B46204629461BF043
:1029B0002DFBBDE8F88300220023002010491BF006
:1029C00001FEBDE8F88302460B461BF01DFB00220A
:1029D00000231BF0F7FDBDE8F88300BFAFF30080D4
:1029E000362BF111F3FE593D0EE526157BCBDB3F6F
:1029F00000609F501344D33F00005043FFFFEF7F20
:102A0000000050C3000000002DE9F04F23F0004704
:102A100057EA020493B037D0674C21F00046A64233
:102A200083460D4629DC9A46964625D0A74224DCEB
:102A3000614CA74279D0002D89468046CDE900231C
:102A400077DB0024BEF1000F2CD15B4B9F4200F0DE
:102A50008B805A4B9F4261D0BAF1804F00F0BA830D
:102A6000574B9A451ED1002D1CDB4046494613B0FA
:102A7000BDE8F04F1DF014BA58B106F1404606F516
:102A8000801656EA0B0306D14C49002013B0BDE86E
:102A9000F08FB742CCDD4B4813B0BDE8F04F1EF0CD
:102AA00045B90024404649461CF0DCF9BBF1000F53
:102AB00019D126B1414B25F040429A4213D1BAF1C7
:102AC000000FC0F2BC83002DE0DA06F1404606F5A7
:102AD000801656EA040300F08F84012CD6D101F150
:102AE00000431946D2E7ED0F013D54EA05034ED0ED
:102AF000354B9F426EDD03F104739F4240F3E88340
:102B0000324B9E424EDDBAF1000F4EDD28A3D3E9D1
:102B10000023104619461BF02BFCB7E7BAF1000F53
:102B2000C0F23C8440464946B0E7BEF1000F82D077
:102B3000A3E7274B9F4228DCA3F154739F4280DD1B
:102B40003B15A3F2FF33142B40F33E84C3F134034F
:102B50002EFA03F202FA03F39E457FF472AF02F0FD
:102B60000102C2F102046DE706F1404303F5801350
:102B700053EA0B0388D0154B9E4240F33283BAF1DF
:102B8000000F12DBDDE9000180E702245AE742462C
:102B90004B46404649461BF037FA02460B461BF0AF
:102BA00011FD73E7BAF1000FB0DB002000216DE7E3
:102BB0009C7500883CE4377E0000F07F0000F03F09
:102BC0000000E03FE02803080000E041FFFFEF3F86
:102BD000FFFF3F43B6F5801F4FF0000205DAD44BEC
:102BE0001BF0C6FB6FF034020E463315D14FC6F30F
:102BF0001306A3F2FF33134446F07F5ABE421A462F
:102C00000D934AF4401A40F32183CB4B9E4240F38C
:102C1000FD83134601330D93C84B0022CDE90623F3
:102C200000270026CDE90867CDE90E67AAF5801ACE
:102C30000027024653465146CDE90A23DDE9062323
:102C40001BF0E2F9DDE9062380468946DDE90A0149
:102C50001BF0DCF902460B460020B8491BF0B2FC21
:102C60000A460146CDE9101213464946024640463F
:102C70001BF07EFB4FEA6A0343F000538C46834609
:102C800003F50023CDE904BCDA468B46D9190023AD
:102C9000CDE902AB0293DDE902AB002006460F4608
:102CA00002460B46504659461BF062FB02460B4655
:102CB000404649461BF0A8F9DDE9062380468946CF
:102CC000304639461BF0A0F902460B46DDE90A0101
:102CD0001BF09AF952465B461BF04AFB02460B4634
:102CE000404649461BF090F9DDE910231BF040FBFC
:102CF000DDE90467CDE9060132463B4630463946F8
:102D00001BF036FB78A3D3E9002306460F461BF0E1
:102D10002FFB77A3D3E900231BF078F932463B461B
:102D20001BF026FB74A3D3E900231BF06FF9324696
:102D30003B461BF01DFB72A3D3E900231BF066F991
:102D400032463B461BF014FB6FA3D3E900231BF074
:102D50005DF932463B461BF00BFB6DA3D3E9002324
:102D60001BF054F93246804689463B463046394688
:102D70001BF0FEFA02460B46404649461BF0F8FAA5
:102D8000524606460F465B46DDE904011BF03EF95C
:102D9000DDE906231BF0ECFA32463B461BF036F920
:102DA0005246804689465B46504659461BF0E0FA3B
:102DB0000022634BCDE90A011BF028F942464B463D
:102DC0001BF024F902980F46064632463B46504611
:102DD00059461BF0CDFA002282468B46584B3046AE
:102DE00039461BF011F9DDE90A231BF00DF9024603
:102DF0000B46404649461BF007F9DDE904231BF06A
:102E0000B7FA3246804689463B46DDE906011BF0AB
:102E1000AFFA02460B46404649461BF0F7F880469B
:102E2000894602460B4650465946CDE904AB1BF095
:102E3000EDF8DDE902AB38A3D3E9002350460F4695
:102E40001BF096FADDE90423CDE90201394650462C
:102E50001BF0DAF802460B46404649461BF0D4F810
:102E60002FA3D3E900231BF083FA2FA3D3E9002378
:102E700080468946504639461BF07AFA02460B4690
:102E8000404649461BF0C2F8DDE90E231BF0BEF8B0
:102E900080460D9889461BF005FA424606460F46C5
:102EA0004B46DDE902011BF0B1F8DDE908231BF018
:102EB000ADF832463B461BF0A9F832463B46504639
:102EC0008B461BF0A1F8DDE908231BF09DF8DDE936
:102ED00002231BF099F802460B46404649461BF078
:102EE00093F880462EE000BFEF4E454A287ECA3F49
:102EF00065DBC9934A86CD3F01411DA96074D13F6E
:102F00004D268F515555D53FFFAB6FDBB66DDB3F7F
:102F1000033333333333E33F000000E009C7EE3FB0
:102F2000FD033ADC09C7EE3FF5015B14E02F3EBE1E
:102F3000000040438E98030079B60B000000F03F7C
:102F4000000008408946013C54EA0503DDE9000120
:102F500014BFD94CD94C0023CDE9043403460C46A8
:102F6000CDE9023400230293DDE9024522462B46D7
:102F70001BF04AF852465B461BF0FAF9DDE90023E4
:102F800006460F46404649461BF0F2F902460B46FC
:102F9000304639461BF03AF82246804689462B4691
:102FA00050465946CDE900891BF0E2F90B4602462E
:102FB00006460F46404649461BF028F8C04B99424A
:102FC00004460D468A4640F3168101F13F4303F55E
:102FD000E003034340F0EA81A3A3D3E90023DDE942
:102FE00000011BF013F83246804689463B462046D6
:102FF00029461BF009F802460B46404649461BF09D
:1030000047FC002840F0D281A8464FEA28534FF4ED
:103010008012A3F2FE3342FA03F35344C3F30A527D
:10302000A84DA2F2FF321541C3F3130423EA0501B0
:103030000020C2F1140B44F48014BAF1000F0246D0
:103040000B4644FA0BFB30463946B8BFCBF1000BB8
:103050001AF0DAFF02460B4606460F46DDE900018C
:103060001AF0D4FF4FEA0B5A0D46002480A3D3E98F
:103070000023204629461BF07BF9324680468946CC
:103080003B46204629461AF0BFFF02460B46DDE9C3
:1030900000011AF0B9FF78A3D3E900231BF068F907
:1030A00077A3D3E9002306460F46204629461BF0A6
:1030B0005FF902460B46304639461AF0A7FF06462E
:1030C0000F4602460B46404649461AF09FFF4246CD
:1030D0004B4604460D461AF097FF02460B46304613
:1030E00039461AF091FF2246804689462B462046F3
:1030F00029461BF03DF964A3D3E9002306460F4699
:103100001BF036F962A3D3E900231AF07DFF3246A3
:103110003B461BF02DF960A3D3E900231AF076FF9C
:1031200032463B461BF024F95DA3D3E900231AF095
:103130006BFF32463B461BF01BF95BA3D3E9002330
:103140001AF064FF32463B461BF012F902460B466A
:10315000204629461AF058FF06460F4602460B46FF
:10316000204629461BF004F90022CDE900014FF06A
:103170008043304639461AF047FF02460B46DDE9E8
:1031800000011BF01FFA424606460F464B462046FA
:1031900029461BF0EDF842464B461AF037FF02462F
:1031A0000B46304639461AF02FFF22462B461AF0BE
:1031B0002BFF02460B4600203F491AF025FF8A44A8
:1031C000BAF5801FC0F233815146DDE904231BF0BC
:1031D000CFF85BE4424640464B4649461BF0C8F8F0
:1031E00054E4BAF1000FBFF6E0ACDDE90034184654
:1031F00004F100414AE4344B21F00048984540F383
:10320000F280324B0B4403430CD132463B461AF05A
:10321000FBFE02460B46DDE900011BF025FB002802
:103220003FF4F3AEDDE9040121A3D3E900231BF051
:103230009FF81FA3D3E900231BF09AF826E4024667
:103240000B4600201C491BF0BDF93CE40022002382
:10325000CDE90823CDE90E23174B00220027CDE945
:103260000623E6E4AFF30080FE822B654715973C0A
:1032700000000000432EE63FEF39FAFE422EE63F03
:10328000396CA80C615C20BED0A4BE726937663E62
:10329000F16BD2C541BDBB3E2CDE25AF6A56113F56
:1032A00093BDBE166CC1663F3E5555555555C53F3D
:1032B00059F3F8C21F6EA5010000F03F0000F0BFF7
:1032C000FFFF8F40FFFF0F00FFCB904000346F3FA8
:1032D0006B4B9E427FF766AC6A4B9E423FF713AC46
:1032E0000022684B1AF090FE57A3D3E9002306464C
:1032F0000F461BF03DF856A3D3E9002380468946CC
:10330000304639461BF034F8002282468B465E4B2D
:10331000304639461BF02CF802460B464EA1D1E947
:1033200000011AF071FE32463B461BF021F80246BE
:103330000B46002055491AF067FE3246CDE90201DE
:103340003B46304639461BF013F802460B46DDE992
:1033500002011BF00DF842A3D3E900231BF008F88B
:1033600002460B46504659461AF04EFE02460B46A0
:1033700006460F46404649461AF048FE42464B462E
:10338000002082468B461AF03FFE02460B4630462E
:1033900039461AF039FE80468946D4E542464B4606
:1033A000002038491BF00EF9FFF770BBDDE904017E
:1033B0002DA3D3E900231AF0DBFF2BA3D3E90023CD
:1033C0001AF0D6FFFFF762BBBEF1000F7FF469ABC6
:1033D000C3F1140347FA03F202FA03F39F422AD01F
:1033E0007446FFF736BB294B98453FF70EAEDDE933
:1033F00002239246934638E602460B461AF004FE34
:1034000002460B461BF0DEF8FFF740BB18A3D3E9DA
:103410000023CDE9082318A3D3E90023CDE90E2327
:103420001B4B00224FF48027CDE9062301E45A46C6
:1034300001F05AFDC9E602F00102C2F10204FFF7F1
:1034400008BB00BFAFF30080000000604715F73FE6
:1034500044DF5DF80BAE543E555555555555D53F97
:10346000FE822B654715F73F9C7500883CE4377E4C
:103470000000004003B8E23F06D0CF43EBFD4C3ED6
:10348000FEFFEF3F0000F03F0000D03F0000E03FB4
:103490000000F83F000000002DE9F04F9A4E21F0A7
:1034A0000047B74291B040F38E809246974A9742C8
:1034B0000C4626DC00298AA3D3E9002340F3B4811B
:1034C0001AF0A2FD924B9F4204460D4600F09080F8
:1034D00085A3D3E900231AF097FD02460B46CAE9FB
:1034E0000023204629461AF08FFD7FA3D3E900234D
:1034F0001AF08AFD0125CAE90201284611B0BDE88B
:10350000F08F844A974240F39080834A974265DC6B
:103510003D15A5F21645A7EB055319461F4606466D
:103520001BF0D6F91AF0BEFE8046894602460B46CD
:1035300030463946CDE90A891AF066FD0022774BFC
:103540001AF016FF894680461BF0C2F91AF0AAFE4F
:1035500002460B4606460F4640464946CDE90C67F3
:103560001AF052FD00226D4B1AF002FF00220023D8
:10357000CDE90E011BF064F9002800F073810023EF
:103580003046394600221BF05BF9002814BF0123A6
:103590000223634A019202212A4600910AA8514659
:1035A00000F086FB002C054614DADAF80420DAF87D
:1035B0000C3002F1004203F100434542CAF80420F6
:1035C000CAF80C3006E0C2E9000100250024C2E977
:1035D00002450025284611B0BDE8F08F02460B4693
:1035E0001AF012FD0025CAE90201CAE90001F1E75B
:1035F0003FA3D3E900231AF007FD3FA3D3E900233B
:103600000D4604461AF000FD02460B46CAE90023A7
:10361000294620461AF0F8FC37A3D3E900231AF014
:10362000F3FC0125CAE90201D4E71BF01BFC34A31B
:10363000D3E90023804689461AF09AFE0022394BCE
:103640001AF0E4FC1BF044F905461AF02BFE24A303
:10365000D3E90023CDE904011AF08AFE02460B46A5
:10366000404649461AF0D0FC1FA3D3E90023804608
:103670008946DDE904011AF07BFE1F2DCDE9020128
:1036800054DC294B6A1E53F822309F424ED002462A
:103690000B46404649461AF0B7FC02460B46CAE9BB
:1036A000002383460E465A463346404649461AF0A2
:1036B000ABFCDDE902231AF0A7FC002C02460B4606
:1036C000CAE9022386DA5B4606F1004601F10041B1
:1036D0008AE84800CAF80C10CAF808006D4279E779
:1036E00000004054FB21F93F3163621A61B4D03DC0
:1036F0000000601A61B4D03D7370032E8A19A33B99
:1037000083C8C96D305FE43FFB21E93F7BD90240AC
:10371000FB21F93FFB213941FFFFEF7F00007041A2
:10372000C03F03080000E03F403F0308DDE90223FB
:10373000404649461AF068FC3A15C1F30A53D31AB9
:10374000102B83460E460992CAE90001ABDD58A34F
:10375000D3E90023DDE904011AF00AFE06460F460C
:1037600002460B46404649461AF04EFCCDE906019A
:1037700002460B46404649461AF046FC32463B4656
:103780001AF042FC4CA3D3E9002306460F46DDE9BC
:1037900004011AF0EDFD32463B461AF035FCDDE936
:1037A0000689CDE9020102460B46404649461AF019
:1037B0002BFC0B46C1F30A570E460999CF1B024654
:1037C000312F8346CAE900236CDD3DA3D3E90023F2
:1037D000DDE904011AF0CCFD06460F4602460B4611
:1037E00040464946CDE906891AF00EFC02460B46D2
:1037F00080468946DDE906011AF006FC32463B4662
:103800001AF002FC30A3D3E9002306460F46DDE997
:1038100004011AF0ADFD32463B461AF0F5FB0246B4
:103820000B46CDE9022334E71AF0F0FB2A4B9F4206
:1038300004460D4618D026A3D3E900231AF0E6FB70
:1038400002460B46CAE90023294620461AF0DCFB53
:103850001FA3D3E900231AF0D9FB4FF0FF35CAE9C3
:103860000201B7E6032394E611A3D3E900231AF07B
:10387000CDFB11A3D3E900230D4604461AF0C6FB85
:1038800002460B46CAE90023294620461AF0BCFB33
:1038900009A3D3E900231AF0B9FB4FF0FF35CAE9B9
:1038A000020197E6DDE90689FDE600BFAFF300807F
:1038B0000000601A61B4D03D7370032E8A19A33BD7
:1038C0000000002E8A19A33BC14920259A837B3929
:1038D0003163621A61B4D03DFB21F93F0000000062
:1038E000574A2DE9F84F21F0004890450E4607460B
:1038F0002BDC544B0029B4BF534D544D98454FF029
:10390000000410DC524B98456EDC4BA3D3E9002336
:103910001AF07CFB00224F4B1AF0BAFFD8B13846A0
:103920003146BDE8F88F4C4B984579DD4B4B9845B7
:1039300043DD013398453DD0384631463EA3D3E9B7
:1039400000231AF015FDBDE8F88F02460B461AF069
:103950005DFBBDE8F88F384631461BF083FA01F075
:1039600083F806460F4632463B46304639461AF043
:103970004DFB324682468B463B46304639461AF06E
:10398000F7FC002280468946324B304639461AF011
:103990003DFB02460B46404649461AF013FE0246DE
:1039A0000B46504659461AF02FFB22462B461AF07A
:1039B000DFFCCEE72A4B9842BED8384631461BF092
:1039C00051FA0022214B1AF0D3FCFEF721FC0646E7
:1039D0000F4602460B46204629461AF0C9FC3246DD
:1039E0003B461AF0C5FCB4E71BF03CFA01F03CF88A
:1039F0001C4B984506460F46B5DD0022154B1AF0C4
:103A000005FB02460B46304639461AF0DBFD3246CE
:103A10003B461AF0FBFA22462B461AF0A9FC98E71F
:103A20001BF020FAFEF7F4FB02460B46204629461F
:103A30001AF09EFC8DE700BF3374AC3C1F7BAC7F5B
:103A4000FFFFEF7FFFFF35400000E0BF0000E03FD9
:103A5000FFFF2F3E0000F03F412E8640CD338640D1
:103A60007DF8B98FFFFFEF3F2DE9F04F21F00046C1
:103A7000B6F1795F85B00C4692469B4605466BDAF7
:103A80001AF026FF002800F0E8802A462346284640
:103A900021461AF06DFC74A3D3E9002380468946C1
:103AA0001AF066FC72A3D3E900231AF0AFFA42467B
:103AB0004B461AF05DFC70A3D3E900231AF0A4FA78
:103AC00042464B461AF054FC6DA3D3E900231AF08A
:103AD0009DFA42464B461AF04BFC6BA3D3E90023F8
:103AE0001AF092FA42464B461AF042FC68A3D3E918
:103AF00000231AF08BFA42464B461AF039FCCDE906
:103B000000010022644B404649461AF031FCDDE9D1
:103B1000002306460F46404649461AF029FC524605
:103B2000804689465B46284621461AF021FC02461B
:103B30000B46404649461AF067FA02460B463046A5
:103B400039461AF061FA02460B46002053491AF032
:103B50005BFA05B0BDE8F08F02460B461AF008FC90
:103B600041A3D3E90023804689461AF001FC40A313
:103B7000D3E900231AF04AFA42464B461AF0F8FB02
:103B80003DA3D3E900231AF03FFA42464B461AF010
:103B9000EFFB3BA3D3E900231AF038FA42464B4629
:103BA0001AF0E6FB38A3D3E900231AF02DFA4246B7
:103BB0004B461AF0DDFB36A3D3E900231AF026FAB0
:103BC0004B4642461AF0D4FB354B9E42CDE90001EC
:103BD00097DD344B9E424FF0000238DCA6F500130F
:103BE00000202E4916461F461AF00EFACDE90201B2
:103BF0000022294B404649461AF0BAFB32463B4662
:103C00001AF002FADDE9002306460F46404649460F
:103C10001AF0AEFB5246804689465B46284621464E
:103C20001AF0A6FB02460B46404649461AF0ECF94C
:103C300002460B46304639461AF0E6F902460B4674
:103C4000DDE902011AF0E0F905B0BDE8F08F164B8E
:103C5000164FCDE902230026CAE71049002005B01F
:103C6000BDE8F08FAFF30080D43888BEE9FAA8BD74
:103C7000C4B1B4BD9EEE213EAD529C804F7E923EBB
:103C80009015CB19A001FA3E7751C1166CC1563F71
:103C90004C5555555555A53F0000E03F0000F03FFD
:103CA0003233D33F0000E93F0000E73F0000D23F3E
:103CB0002DE9F04FADF5197D9C4CA29E9C4D54F81A
:103CC000264005942646D41E85FB0475E417C4EBF4
:103CD000A50424EAE4741D460893631CA3EB830344
:103CE000013D02EBC30304932B4609940295651B27
:103CF000F418039006911AD42C4401340DF178087D
:103D000000260027DDF88C9208E059F825001AF00B
:103D1000C9FA0135A542E8E9020108D0002DF4DA1C
:103D2000013530463946A542E8E90201F6D1059B46
:103D3000002B2EDB089B4FEAC309039BA9F108085F
:103D4000984420AB9944059B70AA02EBC30B0DF578
:103D5000DC7A029B002BC0F20F83039B4D46A3F13C
:103D600008040026002775E90223F4E902011AF08D
:103D7000FFFA02460B46304639461AF047F94445E9
:103D800006460F46EFD1EAE90267DA4509F108096C
:103D9000DFD10598089A009000F18043013B9B0019
:103DA0000CAC191F234402F100520B93039B013A00
:103DB00021440A9103EBC20B009A98A901EBC203BC
:103DC000002A53E9284513462BDD01EBC308A8F16F
:103DD000A8080DF12C090DF5DC7A0022554B204680
:103DE00029461AF0C5FA1AF073FD1AF05BFA0022A0
:103DF000514B06460F461AF0BBFA02460B462046C8
:103E000029461AF001F91AF063FD78E8022349F80F
:103E1000040F394630461AF0F9F8D04504460D46ED
:103E2000DBD1DDF81090204629464A4601F05CF8C7
:103E300000224FF07F5304460D461AF099FAFCF722
:103E4000EFFE00223D4B1AF093FA02460B46204645
:103E500029461AF0D9F80D4604461AF039FD804675
:103E60001AF020FA0B460246294620461AF0CCF8F2
:103E70004B46002B06460F4640F3F780009A0CA9EC
:103E8000013AC9F1180351F8225045FA03F101FA39
:103E900003F30CA8EB1A40F82230C9F11705884447
:103EA00043FA05F5002D63DD009B002B08F10108A6
:103EB00040F381820C9C002C00F018830120002329
:103EC0000CAAC4F1807442F82340009A824219DDA2
:103ED0000CAA0CAC52F820106FF07F42511A44F833
:103EE00020100099023399420CDD1046009A0CA96B
:103EF00001EB830301EB82011A68821A43F8042B59
:103F00008B42F9D1049B002B1ADD049B012B4FF04F
:103F1000010440F05882009B5A1E0CAB0CA953F8C8
:103F20002230C3F3160341F8223058E260440308FC
:103F3000ABAAAA2A0000703E000070410000204099
:103F4000022D15D132463B46002097491AF05CF805
:103F500006460F46049A9449002000F0C5FF024629
:103F60000B46304639461AF04FF8022506460F46F2
:103F700000220023304639461AF062FC002800F087
:103F80005282009A059B501E83420FDC02F180434F
:103F9000013B0CAA0B9C02EB8303002253F804198B
:103FA000A34242EA0102F9D1002A6FD1059B0CAA73
:103FB000013B52F82330002B40F033820A9A012350
:103FC00052F8041901330029FAD0009AD31802F1EB
:103FD000010A9A4507933DDC009B0899099A0B4416
:103FE00007990AEB0208994620AB08F1804803EBD9
:103FF000C9098B18A39A08F1FF3802EB880870AA48
:1040000002EBCA0AA39A02EB8303009358F8040F49
:104010001AF048F9029B002BE9E802011DDB039B23
:104020004D46A3F108040026002775E90223F4E9B0
:1040300002011AF09DF902460B463046394619F046
:10404000E5FF5C4506460F46EFD1009B9845EAE840
:104050000267DBD1079B0093AEE6009B002600279A
:104060009845EAE80267D1D1F4E706D1009B0CAA93
:10407000013B52F82350ED1514E700224B4B1AF088
:10408000FDFB002840F08281054671E70CA90295EE
:1040900051F820300499CDF81C8018390246009060
:1040A00004916BB900F18043013B0CA800EB830342
:1040B00053F80409013A18390028F9D00092049104
:1040C000049A3949002000F00FFF009B002B0446A2
:1040D0000D46C0F20382DA0070A901EB020B0492D4
:1040E0000CAA02EB8306DFF8C8900BF10807043630
:1040F0004FF0000856F8040D1AF0D4F822462B466B
:104100001AF036F94B4667E9020142462046294635
:104110001AF02EF90CAB9E4204460D46EAD10DF57D
:10412000907ACDF80CA0DDF814A04FF00009BAF198
:10413000000FC0F23D81DFF87C805D4618A1D1E917
:10414000000100260027002403E04C4510DCF8E8BD
:104150000201F5E802231AF00BF902460B4630463D
:10416000394619F053FF0134A24506460F46ECDAF2
:10417000039B03EBC903ABF1080BC3E900676EAB0C
:104180005B4509F10109D2D1A29BDDF80CA0032BFC
:1041900000F28B80DFE813F0D10090009000100057
:1041A00000000040FB21F93F0000F03F0000E03F2D
:1041B0000000703E90220308009B002B40F3A48176
:1041C000049B0AEB0308D8E90067D34658E9029A32
:1041D00032463B464846514619F018FF04460D4604
:1041E00002460B464846514619F00EFF32463B4602
:1041F00019F00CFFC8E9000168E90245C3452646ED
:104200002F46E3D1009B012BDA4640F37D81049BCE
:104210005B44D3E90067984699460DF5947B59E9CC
:1042200002343246184621463B46CDE9000119F0DA
:10423000EDFE04460D4602460B46DDE9000119F08D
:10424000E3FE32463B4619F0E1FEC9E9000169E9A7
:104250000245CB4526462F46E1D1002308F1080848
:104260001D464CAC1846294678E9022319F0CEFECB
:10427000444503460D46F5D1029A002A00F02081FC
:10428000DAF80440DAF80C20069FDAF80010DAF8C1
:1042900008003B6105F1004504F1004402F10042D1
:1042A0007D617C60FA603960B860079B03F00700AD
:1042B0000DF5197DBDE8F08F049C002608345444A8
:1042C00033463046194674E9022319F09FFE5445DF
:1042D00006460B46F5D1029A30461946002A00F0F0
:1042E000DA80069803F10044324644600660DAE959
:1042F000000119F089FE0B460099002902460EDDE7
:10430000012410461946FAE9022319F07FFE0B46F4
:1043100000990134A1420246F3DA029909B103F18E
:1043200000431946069B1046C3E90201079B03F0B0
:1043300007000DF5197DBDE8F08F049C00220834BC
:10434000544413461046194674E9022319F05EFEE0
:10435000A24502460B46F5D1029909B103F100438B
:104360001946069B1046C3E90001079B03F00700AE
:104370000DF5197DBDE8F08F00260027EAE90267F8
:10438000DA4509F108097FF4E4AC02E5009B002B53
:1043900008F10108C8BF02253FF78CAD32463B4605
:1043A0000020634919F030FE022506460F46DFE57E
:1043B00000260027DCE6049B002B26DD0024049B5E
:1043C000012B3FF4A8AD022B09D1009B5A1E0CAB68
:1043D0000CA953F82230C3F3150341F82230022D03
:1043E0007FF4C6AD32463B460020514919F00CFE21
:1043F00006460F46002C3FF4BBADABE500990133F8
:10440000994278D1049B002BD9DC022D7FF4B0AD0A
:1044100032463B460020464919F0F6FD06460F4657
:10442000A6E50123D1E53946049F02957A4230463C
:10443000CDF81C8000F058FD00223E4B04460D468E
:104440001AF01CFA002862D000223B4B2046294675
:1044500019F08EFF1AF03CFA064619F023FF0022ED
:10446000344B19F085FF02460B462046294619F0C9
:10447000CBFD1AF02DFA00990B4601331A46009332
:104480003B46183304930B460CA941F8230013460E
:1044900041F8236014E6069B3246C3E900010B464F
:1044A000DAE9000119F0B0FD0B4600990029024637
:1044B0003FF726AF1946069B1046C3E9020135E7D0
:1044C00018462946DAE90023DAE90245069FC7E9DA
:1044D0000401C7E90023C7E90245E6E6A29B032BD6
:1044E0003FF6E3AEDFE803F0211C1C0E009B012B1E
:1044F00088DD0CAA012352F8044F002C3FF47EAF54
:10450000581CDDE40DF5907A00231D46B4E62946DB
:1045100020461AF0DDF9009A0CA941F82200CFE5F7
:10452000002633460DF5907AD5E60022134613E7B0
:104530000000F03F000070410000703E00000000ED
:104540002DE9F04F21F00046B6F1795F85B00C46B9
:1045500090469946054604DA1AF0BAF9002800F0A8
:1045600085802A4623462846214619F001FF064643
:104570000F4602460B462846214619F0F9FE3EA397
:10458000D3E9002382468B463046394619F0F0FEC7
:104590003BA3D3E9002319F037FD32463B4619F01F
:1045A000E7FE39A3D3E9002319F030FD32463B463C
:1045B00019F0DEFE36A3D3E9002319F025FD3246BB
:1045C0003B4619F0D5FE34A3D3E9002319F01EFDB4
:1045D0000E9BCDE900019BB30022334B4046494678
:1045E00019F0C6FEDDE90023CDE902015046594627
:1045F00019F0BEFE02460B46DDE9020119F004FD8A
:1046000032463B4619F0B4FE42464B4619F0FCFCDC
:1046100023A3D3E9002306460F465046594619F016
:10462000A7FE02460B463046394619F0EFFC02461B
:104630000B462846214619F0E7FC05B0BDE8F08F8F
:1046400002460B463046394619F092FE14A3D3E9D0
:10465000002319F0D9FC52465B4619F089FE2A4620
:10466000234619F0D3FC05B0BDE8F08F284621465B
:1046700005B0BDE8F08F00BF7CD5CF5A3AD9E53DF3
:10468000EB9C2B8AE6E55A3E7DFEB157E31DC73E03
:10469000D561C119A0012A3FA6F810111111813F5F
:1046A000495555555555C53F0000E03F00000000F5
:1046B0002DE9F04FDA4C21F00046A64287B08A4639
:1046C00089461746984683461ADC1AF001F9A8BBBA
:1046D0005B461E43109B0133334300F0A981109BBE
:1046E000012B00F0B9815A4653460020CD4919F0FC
:1046F00069FF04460D462046294607B0BDE8F08F05
:10470000C94B9E421ADD0029C0F29F815A4653468A
:10471000A5A1D1E9000119F077FC3A4643460446C9
:104720000D46A3A1D1E9000119F06EFC22462B46EB
:1047300019F06CFC002783468A46B8465A46534611
:104740005846514619F014FE03460C46CDE9003494
:1047500002460B4619F00CFEDDE9002304460D4627
:104760005846514619F004FE93A3D3E90023CDE93E
:1047700002012046294619F0FBFD91A3D3E900234D
:1047800019F044FC22462B4619F0F2FD8EA3D3E922
:10479000002319F03BFC22462B4619F0E9FD8CA3BF
:1047A000D3E9002319F032FC22462B4619F0E0FD34
:1047B00089A3D3E9002319F029FC22462B4619F0DE
:1047C000D7FD87A3D3E9002319F020FCDDE90023FE
:1047D00019F0CEFD84A3D3E90023CDE904012046DE
:1047E000294619F0C5FD82A3D3E9002319F00EFC78
:1047F00022462B4619F0BCFD7FA3D3E9002319F014
:1048000005FC22462B4619F0B3FD7DA3D3E9002316
:1048100019F0FCFB22462B4619F0AAFD7AA3D3E936
:10482000002319F0F3FB22462B4619F0A1FD78A3D3
:10483000D3E9002319F0EAFB02460B46DDE9040147
:1048400019F0E4FBDDE9022319F092FD3A464346F4
:1048500019F0DCFBDDE9002319F08AFD02460B4666
:104860003846414619F0D2FB6BA3D3E90023044636
:104870000D46DDE9020119F07BFD22462B4619F0B9
:10488000C5FB0B46024651465846CDE9002319F0B8
:10489000BDFB654B9E4204460D463EDC109B012B42
:1048A00036D002460B4600205E4919F08BFE0024EC
:1048B0000F4606465A4653462046294619F0A4FBA1
:1048C000A04602460B46DDE9000119F09DFB424679
:1048D0003B4619F04DFDA94604460D4642463B466F
:1048E0004046494619F044FD0022504B19F08EFB1A
:1048F00002460B462046294619F088FB32463B46C5
:1049000019F036FD42463B4619F080FB04460D4641
:104910002046294607B0BDE8F08F109819F0C2FC78
:10492000224606460F462B462046294619F020FD12
:104930003246CDE902013B462046294619F066FB86
:1049400002460B46DDE9020119F03CFEDDE90023D9
:1049500019F05AFB02460B465846514619F054FBD3
:1049600002460B4619F052FB02460B4630463946CA
:1049700019F04AFB04464FEAA97000F00200C0F1AA
:1049800001000D4619F08EFC02460B4620462946D2
:1049900019F0EEFC04460D462046294607B0BDE856
:1049A000F08F00BFAFF30080182D4454FB21E93F86
:1049B000075C143326A6813CD47ABF74702AFB3E70
:1049C000E9A7F0320FB8123F68108D1AF726303F72
:1049D0001583E0FEC8DB573F93846EE9E326823FF0
:1049E000FE41B31BBAA1AB3F735360DBCB75F3BE83
:1049F000A69237A0887E143F0165F2F2D844433F67
:104A0000280356C9226D6D3F37D60684F464963F5D
:104A10007AFE10111111C13F635555555555D53FBB
:104A2000FFFF2F3E0000F0BF2794E53F0000F03F5E
:104A3000584651461AF016FA02460B46002008491D
:104A400019F0C0FD04460D4662E701F1004308F18C
:104A5000004883469A4659E65C46554658E700BFEB
:104A60000000F03F000000002DE9F04FD24A21F095
:104A70000043934285B00C460E4605462DD9CF4AD9
:104A800093421AD8002E80F21681B5A3D3E90023F1
:104A90002846214619F0BAFA0022002319F0DAFE5E
:104AA000C0B9B1A3D3E900232846214619F060FC20
:104AB00002460B460020C24908E1C24A934240F236
:104AC000D0800346C1F31302134340F0F68100295E
:104AD00080F2C4800020BC49C0E0BC4A934200F28E
:104AE0002981BB4A934240F2DE80002301930022D9
:104AF000B84B2846214619F03BFC06460F460246B5
:104B00000B462846214619F033FC99A3D3E900232C
:104B100082468B4619F02CFC97A3D3E9002319F0A9
:104B200075FA52465B4619F023FC95A3D3E900239E
:104B300019F06AFA52465B4619F01AFC92A3D3E9BF
:104B4000002319F063FA52465B4619F011FC90A35A
:104B5000D3E9002319F058FA52465B4619F008FCD5
:104B600000229D4B19F052FA8046894602460B46B8
:104B70003046394619F0FCFB02460B4600209749A7
:104B800019F042FA064602460B460F464046494691
:104B900019F03AFA3246804689463B462846214675
:104BA00019F0E6FB02460B4600208D4919F02CFA5D
:104BB00002460B464046494619F004FD52465B4604
:104BC00019F0D6FB019E02460B46002E38D0DDE9D7
:104BD000026732463B4619F017FA2A46234619F077
:104BE000C7FB32463B4619F00FFA5B46524619F0B6
:104BF0000BFA019B013306460F4600F00F81019B23
:104C0000012B00F0F180019B0133392B39D8019B36
:104C1000132B40F31281019FC7F57F7603360022E4
:104C2000330519F0F3F902460B462846214619F0E0
:104C3000EBF90022684B19F0E9F901EB07510DE09F
:104C40002846214619F094FB52465B4619F0DCF9E0
:104C500002460B462846214619F0D6F905B0BDE8B4
:104C6000F08F4DA3D3E9002319F012FE00283FF482
:104C700009AF4BA3D3E900231046194619F078FB7E
:104C8000ECE72A46234619F0BFF902460B460020FE
:104C9000514919F0B9F9019A4F4B01EB0251002229
:104CA00019F0B2F9DAE73EA3D3E9002319F0AEF91F
:104CB00002460B46CAE72CA3D3E900232846214627
:104CC00019F056FB0B4643490246002019F09EF9A5
:104CD00019F0FEFD019019F0E5FA33A3D3E90023A2
:104CE00006460F4619F044FB02460B46284621466D
:104CF00019F08AF92EA3D3E900238046894630466D
:104D0000394619F035FB06460F4632463B464046CB
:104D1000494619F079F902460B4605460C464046CD
:104D2000494619F071F932463B4619F06DF9CDE963
:104D30000201DCE62B4A934200F2978000291AA375
:104D4000D3E90023C0F2AE8019F05EF9012380465A
:104D50008946019316A7D7E90067D6E7AFF300802D
:104D600059F3F8C21F6EA501FE822B654715F73F68
:104D70002DC3096EB7FD8ABE3952E686CACFD03E32
:104D8000B7DBAA9E19CE143F8555FE19A0015A3FE4
:104D9000F41011111111A13FEF39FAFE422E864095
:104DA0009C7500883CE4377E0000E0FE422EE63F22
:104DB000763C7935EF39EA3D79684340412E8640AB
:104DC0000000E0BFFFFFEF7F0000F0BF422ED63FA4
:104DD000FFFF8F3C0000E03F0000F03F0000084074
:104DE00000001840B1A2F03F2846214600223A4B6D
:104DF00019F030FD002846D0284621460022374BC6
:104E000019F004F902460B463046394619F0FCF811
:104E100000224FF0404319F0ABFA1FE732463B4601
:104E20002846214619F0F0F800222C4B19F0A0FA80
:104E300000222A4B19F0E8F810E7019E4FF4001EFB
:104E40004EFA06FE2A462346CEF17F5719F0DCF8CB
:104E5000002607F5401702460B463046394619F042
:104E6000D3F8019E01EB0651F8E617A3D3E900231E
:104E700019F07EFA002C02460B464FF00000FFF6B8
:104E80001AAE164922E732463B462846214619F01B
:104E9000BBF802460B4619F0B9F80022104B19F086
:104EA000B5F8DBE619F0B2F84FF0FF3380468946DB
:104EB000019307A7D7E9006727E702460B4619F0D9
:104EC000A5F8CBE6AFF30080FE822B654715F73FD0
:104ED000763C7935EF39EABD0000D0BF0000E03FF5
:104EE0000000F03F00000000F8B5C1F30A56044688
:104EF0000D460B4617460EBB21F000430343864682
:104F000025D00022344B19F033FA344A9742044634
:104F10000D460B462ADBC1F30A56363E3E4440F2AC
:104F2000FE72964228DC002E12DD23F0FF4323F4AC
:104F3000E00343EA065520462946F8BD40F2FF72D9
:104F40009642EBD102460B4619F060F8F8BDF8BD69
:104F500016F1350F1DDA4CF250339F4222462B4694
:104F600025DC19A1D1E900011CF012F816A3D3E940
:104F7000002319F0FDF9F8BD22462B4614A1D1E912
:104F800000011CF005F812A3D3E9002319F0F0F991
:104F9000F8BD23F0FF4323F4E003363643EA065519
:104FA0002046294600220E4B19F0E2F9F8BD08A16F
:104FB000D1E900011BF0ECFF05A3D3E9002319F0B0
:104FC000D7F9F8BDAFF3008059F3F8C21F6EA50101
:104FD0009C7500883CE4377E00005043B03CFFFFE6
:104FE0000000903C10B5054C237833B9044B13B145
:104FF0000448AFF300800123237010BDC0030020DC
:1050000000000000B04903080C4B43B10C480D49A7
:1050100010B5AFF300800C48036823B910BD0A48EF
:10502000036833B97047094B002BF7D0BDE8104037
:105030001847064B002BF5D0184700BF00000000B2
:10504000B0490308C4030020AC03002000000000A6
:1050500070B504460E4600F065FA88B10368DB6A55
:1050600005469847082C0CD0A4F10903012B14D94C
:105070003246214610230D20BDE8704004F0D8B917
:1050800070BD2B6828465B6A98470228F0DC2B68C5
:1050900028461B6A04219847EAE72B6828465B6A82
:1050A00098470528E4DC2B6828461B6A08219847A6
:1050B000DEE700BF30B52DED028B83B0054600F072
:1050C00031FA044640B10368DB6A9847032D50D893
:1050D000DFE805F0373F47080190019803B0BDECC9
:1050E000028B30BD20460CF099FC07EE900A20465A
:1050F000F8EEE78A0CF0A2FC07EE900A2046B8EE24
:10510000E78A0CF0ABFC68EE087A07EE100AE8EECE
:10511000A87AB8EEC77AE7EE077AF5EE407AF1EEB4
:1051200010FAB1EEE78A03D517EE900A1AF050FD97
:10513000FDEEC87ACDED017A019803B0BDEC028B8B
:1051400030BD204603B0BDEC028BBDE830400CF012
:1051500065BC204603B0BDEC028BBDE830400CF0CE
:105160006DBC204603B0BDEC028BBDE830400CF0B6
:1051700075BC00230193B0E738B5054600F0D2F9BD
:1051800058B10368DB6A0446984745B1012D04D144
:105190002046BDE83840FBF747BA002038BD20461E
:1051A000BDE83840FBF720BA10B5044600F0BAF964
:1051B00028B1036821461B6ABDE81040184710BD9E
:1051C0000048704716FCFFFF704700BF10B5034B47
:1051D000036004460CF002FA204610BD7831030843
:1051E00010B5054B036004460CF0F8F920461CF09E
:1051F00000FB204610BD00BF783103082DE9F043C5
:10520000BB4F3C6885B01CB1204605B0BDE8F083BB
:105210004FF0FF31012001F0F1FC05F02FF90028DB
:1052200000F0F0800C201CF0E6FA4FF0FF3105464C
:10523000462001F0E3FC682840F233114FF05100A2
:1052400018BF032101F0DAFCDFF8D4E2A94B0646CF
:1052500006F00F08C6F3031916F4807608BF7346EC
:10526000A54841464A460BF075FB321C18BF012287
:105270004B46414628460FF077FCA048AC600BF047
:1052800069FB4FF0FF31032001F0B8FC05F0F6F8A0
:105290004FF0FF310446022001F0B0FC05F0EEF8BB
:1052A000002C00F09880002800F0958001462046F0
:1052B00004F008FD0646002800F0A08038214620B2
:1052C00001F09CFC322880462DD02ADD382869D098
:1052D000682840D14FF0FF31012001F08FFC05F02C
:1052E000CDF881464C201CF086FA05230446019334
:1052F0004A46CDF8008031462B460EF093F8204602
:10530000A86003689B6A9847A8680368DB6A9847A7
:105310007B480BF01FFB2C4620463D6005B0BDE8E6
:10532000F083302817D14FF0FF31012001F066FCE7
:1053300005F0A4F881464C201CF05DFA1FFA88F1B4
:10534000044605234A460091019331462B460DF051
:105350004BFE2046D4E732680124002301940094D8
:10536000D2F82080AB600F220DF10F0332213046BE
:10537000C047002848D14FF03208414661480BF041
:10538000E9FA4FF0FF31012001F038FC05F076F822
:1053900081464C201CF02FFA052304464A46CDF8DE
:1053A0000080D1E74FF0FF31012001F027FC05F02C
:1053B00065F8814644201CF01EFA052304464A463F
:1053C000CDF80080314601932B460DF083FF4E4B04
:1053D0002360204694E74D480BF0BCFA4FF0FF31B4
:1053E000192001F00BFC05F049F84FF0FF3104469D
:1053F000182001F003FC05F041F857E744480BF092
:10540000A9FA88E73C68FFE6336801940094D3F872
:1054100020800F220DF10F0330213046C04718B90C
:105420004FF030084146A9E7336801940094D3F85F
:1054300020800D220DF10F0338213046C047B8B946
:10544000382130480BF086FA4FF0FF31204601F04A
:10545000D5FB05F013F8804644201CF0CCF94FF042
:10546000050E38230446424631468DE80840ABE736
:10547000326801940094D2F820800DF10F03752258
:1054800068213046C047D8B968211E480BF062FA3F
:105490004FF0FF31204601F0B1FB04F0EFFF8046F2
:1054A0004C201CF0A8F94FF0050E682304468DE847
:1054B0000840424631462B460DF0B4FF20461FE718
:1054C00014480BF047FAA86800287FF41AAF4FF091
:1054D000FF31032001F092FB04F0D0FF18B10E4819
:1054E0000BF038FA17E70D480BF034FA13E700BF5A
:1054F000DC030020142303082423030844230308A7
:10550000DC23030800240308E022030854230308D3
:1055100068230308EC23030880230308BC23030843
:105520001C23030808B5FFF769FE00B1806808BDB9
:1055300008B501F08BFCFBF737FEBDE8084001F031
:10554000C3B900BF08B501F081FCFBF79DFEBDE8C3
:10555000084001F0B9B900BF08B501F077FC19F0B7
:10556000F7FCBDE8084001F0AFB900BF08B501F095
:105570006DFC1AF069FABDE8084001F0A5B900BF5A
:1055800008B501F063FCFBF71FFEBDE8084001F021
:105590009BB900BF08B501F059FC19F00BFFBDE83D
:1055A000084001F091B900BF08B501F04FFCFBF7CE
:1055B0005BF8BDE8084001F087B900BF08B501F00D
:1055C00045FC19F04BFEBDE8084001F07DB900BF75
:1055D00070B5049E96420C4628DB15466BB1002A36
:1055E00000EB020107DD2046A21811F8013D00F88A
:1055F000013B9042F9D1002070BD042A0FD0022A4D
:1056000002D110F0010306D001462A46204607F0D9
:10561000CDF8002070BD02880A80184670BD10F0D9
:105620000303F1D102680A60184670BD08460021E4
:1056300008F09EFA4FF0FF3070BD00BF0830704791
:1056400040B1002905DB4368994202DA0844007A38
:1056500070470020704700BF30B1002904DB436869
:105660009942BCBF40180272704700BF40B1002988
:1056700005DB4368994202DA0844007A704700204B
:10568000704700BF830705D120B1030F0CBF012075
:10569000002070470120704730B1002904DB4368C7
:1056A0009942BCBF40180272704700BF002B23DB39
:1056B000002921DB70B54668B1421ADC5568761ABC
:1056C0001446EA1AB242A8BF3246002A11DB8442CD
:1056D0000D4607D0083408300844E11807F066F892
:1056E000002070BD0834E11860191CF0BEF80020DD
:1056F00070BD4FF0FF3070BD4FF0FF30704700BFFE
:105700004068704710B4141E10DB426894420DDCF0
:1057100033EA230328BF1346121B08309A42204461
:10572000A8BF1A465DF8044B08F022BA5DF8044B96
:10573000704700BF43688B4210B400F1080418465C
:10574000A8BF084632EA220128BF19461B1A99420F
:105750002044A8BF19465DF8044B00F0ABBE00BF63
:10576000002BBCBF43689B1A002A70B50E4620DB95
:1057700044689918A1421CDC8A421ADCCBB136F08D
:10578000004116D059428E4214DDB34212DD08307A
:10579000002E00EB020515DB9C1B2246A9192846AA
:1057A0001CF063F8324628190021BDE8704008F06B
:1057B000DFB970BD002211464FF0FF33BDE87040E5
:1057C000FFF7A0BF74429A19294628191CF04DF81A
:1057D000224628460021BDE8704008F0C9B900BF44
:1057E00003460830596800F0E5BD00BF70B50446B7
:1057F00000206168490000F059FD6668002E11DD47
:10580000094D04F1080100EB4606034611F8012B8F
:10581000141102F00F022C5DAA5C9C71DA71023344
:105820009E42F3D170BD00BF14240308002BBCBFFF
:1058300043689B1A002A2FDB70B445689C18AC4261
:1058400029DCA24227DC33B331F0004423D0002905
:10585000B8BF01EB032191FBF3F603FB1616002EF4
:1058600000F10800B8BFF61802441644B2421344CF
:1058700011D0304604E0B24208460ED090420AD021
:105880000146147811F8015B02F8015B8B42047049
:10589000F1D13046F2E770BC70470E46EEE700BF2C
:1058A00000B583B04FF0FF3300930023FFF7FEFEF7
:1058B00003B05DF804FB00BF0146002000F0FABD14
:1058C00038B50021054600F0A3FD0146002000F098
:1058D000F1FD044600F10801284600F099FD20463C
:1058E00038BD00BF30B5013A83B004460D460F2ADB
:1058F00016D8DFE802F01717838D94172E08081FBB
:10590000424D5C367462184601F034FB012DADF84F
:10591000000005DD9DF800209DF8013023706270C5
:1059200003B030BD184601F025FB002DF8DD2070D6
:1059300003B030BD184601F01DFB032D0090EFDDD4
:105940006A46231D12F8011B03F8011D9C42F9D180
:10595000E6E7184601F00EFB002DC0B2E0DD207036
:10596000E6E7184601F072FA072DCDE90001D7DD10
:105970006B4603CB20606160D2E7184601F08EFAD7
:10598000032DCDDDA3070CBF2060206003B030BD28
:10599000184601F083FA032D0090C1DD6A46231DED
:1059A00012F8011B03F8011D9C42F9D1B8E7184613
:1059B00001F078FB032DE5DCB2E7184601F046FA6A
:1059C000072DCDE90001ABDD0DF1FF3204F1080335
:1059D00012F8011F03F8011DA342F9D1A0E71846F0
:1059E00001F060FB032D00909ADD6A46231D12F83A
:1059F000011B03F8011DA342F9D191E7184601F0FC
:105A0000B9FA012D8CDDE20754BF2080208087E7A2
:105A1000184601F0AFFA012D82DD80B2F3E7184697
:105A200001F0A8FA032DADDC7AE700BF30B4141EF4
:105A300007DB456808300A462044291B30BCFFF7C5
:105A400051BF30BC704700BF00B5013A85B00F2A86
:105A500000F28880DFE802F01623303D4A56595C98
:105A60005F626571748083080091012308220DEB49
:105A70000201FFF7ADFDDDE9020100F025FF05B0F1
:105A80005DF804FB00910023012202A9FFF7A0FDAD
:105A90009DF9080001F024F805B05DF804FB0091C1
:105AA0000023012202A9FFF793FD9DF8080001F0F1
:105AB00017F805B05DF804FB00910023022202A94B
:105AC000FFF786FDBDF9080001F00AF805B05DF8A2
:105AD00004FB00910023022202A9FFF779FDBDF823
