:10400000000003205D33010059330100ADE00000E2
:1040100059330100593301005933010000000000F9
:104020000000000000000000000000005933010003
:1040300059330100000000005933010059330100D9
:10404000593301005933010059330100593301003C
:10405000593301005933010059330100593301002C
:10406000593301005933010059330100593301001C
:1040700081DB010089DB010091DB010099DB01009C
:10408000A1DB0100A9DB0100B1DB0100B9DB01000C
:10409000C1DB0100C9DB0100D1DB0100D9DB01007C
:1040A000E1DB0100E9DB0100F1DB0100F9DB0100EC
:1040B000593301005933010059330100D5D50100AE
:1040C000D9D50100DDD50100E1D50100E5D501001C
:1040D00059330100593301005933010059330100AC
:1040E000593301005933010059330100593301009C
:1040F000000000005933010019D1010015D1010061
:1041000011D1010005D1010031D101002DD10100F3
:1041100029D101001DD1010049D1010045D1010083
:1041200041D1010035D1010061D101005DD1010013
:1041300059D101004DD1010079D1010075D10100A3
:1041400071D1010065D1010091D101008DD1010033
:1041500089D101007DD101000000000000000000B5
:10416000000000000000000000000000000000004F
:10417000000000000000000000000000000000003F
:1041800015A0010019A0010011A001000DA001005F
:104190000000000059330100593301005933010078
:1041A00059330100593301005933010059330100DB
:1041B00059330100593301005933010059330100CB
:1041C00059330100593301005933010059330100BB
:1041D00059330100593301005933010059330100AB
:1041E00059330100593301005933010079C60100E8
:1041F00081C6010089C6010091C6010099C601006F
:10420000A1C60100000000000000000059330100B9
:10421000593301005933010059330100593301006A
:10422000593301005933010059330100593301005A
:10423000593301005933010059330100593301004A
:10424000593301005933010059330100593301003A
:10425000593301005933010059330100593301002A
:10426000000000007CB0EE877CB0EE87FF00FF000E
:10427000FF00FF00FF00FF00FF00FF00FF00FF0046
:10428000FF00FF00FF00FF00FF00FF00FF00FF0036
:10429000FF00FF00FF00FF00FF00FF000000000024
:1042A0002DE9F04F0378202B83B00446894603D1D3
:1042B00014F8013F202BFBD02B2B08BF013494F8BE
:1042C00000E0BEF12D0F00F086809FED577BBEF120
:1042D000300F8DED007B00F08A80BEF1000F00F002
:1042E0009D80002600274FF0000ADFF84CB14FF008
:1042F00000081CE019F046FF06460F46284619F054
:10430000DBFE32463B4619F08BFD524606460F4611
:104310005B46DDE90001B8F1000F03D01AF05CF84C
:10432000CDE9000114F801EFBEF1000F14D0AEF199
:104330003005092D52465B4630463946DAD9B8F188
:10434000000F18D1BEF12E0F15D114F801EF4FF068
:104350000108BEF1000FEAD132463B46DDE900011B
:1043600019F010FF06460F46C9F80040304639469E
:1043700003B0BDE8F08F0EF0DF0EBEF1450F08D0A0
:104380002378202B03D114F8013F202BFBD0002BE6
:1043900041D1DDE900233046394619F0F3FE237898
:1043A00006460F46002BDFD04946601C0A221CF04F
:1043B00059FD2149024600201AF044FA02460B46F4
:1043C0003046394619F0DEFE06460F46304639467D
:1043D00003B0BDE8F08F94F801E09FED157BBEF1CE
:1043E000300F8DED007B04F101047FF476AF63782C
:1043F00043F02003782B7FF474AF10224946204607
:104400001CF030FD19F058FEDDE9002319F0BAFE6A
:1044100006460F46AAE70026084FA7E70026002712
:104420009AE700BFAFF30080000000000000F03FFB
:10443000000000000000F0BF000024400000F87FF2
:104440002DE9F84F16460023002204460D461AF0C7
:104450000BF9002840F09D800022002320462946C9
:104460001AF0F8F828B13022002332707370BDE8DA
:10447000F88F204629461AF0F5FF1AF033F97BA38E
:10448000D3E900238146294620461AF0EDF800289A
:1044900000F08680B9F1000FC0F2BE804A460020CD
:1044A0006F491AF0CFF902460B462046294619F00B
:1044B00093FF04460D4666A1D1E9000101274FF0A4
:1044C000000822462B4619F05DFE0022654B19F0CC
:1044D000A7FC1AF0F3F9002FCC464FF0FF3AC14683
:1044E0004FF0000840F38580DFF888E15E4C012240
:1044F000AEF1700945F6F3254FF02E0BA94208BF27
:10450000A0424FF0300309D3001B61EB0501A94223
:1045100008BFA04203F10103F6D2DBB2337050EAC8
:10452000010306F1010409D1BA4210DACE4502F1C5
:1045300001020CD026467EE80245DFE7BA4204BFFE
:1045400086F801B0B41CCE4502F10102F2D1B8F1F7
:10455000000F0DD02246302102F8011BC2F10103E9
:1045600053442344002BF7DC2AEAEA7301331C444A
:10457000BCF1010F4CD06523BCF1000F2370C5BF07
:104580002B236370611CA11C6046BDE8F84F0FF03F
:10459000C5BF05F100431D462D23337001365BE78F
:1045A0002DA3D3E90023204629461AF07BF80028E2
:1045B0007FF470AFB9F10E0F09F101073DDDA9F1EC
:1045C0000E084246002026491AF03CF902460B46E6
:1045D0002046294619F000FF0022224B19F020FC4A
:1045E0001AF06CF9002FA9F10F0A4FF0010C3FF7F8
:1045F0007BAF334630222E2403F8022B74707FEAFF
:10460000090618D01E4403F8012BB342FBD16BE717
:1046100000232370BDE8F88FC9F100020020104983
:104620001AF010F902460B462046294619F0AAFD59
:1046300004460D463FE71E4656E7C9F10E0200202C
:104640000749C8461AF0FEF84FF0010939E700BFE4
:104650000000901EC4BCD64250EFE2D6E41A4B4490
:10466000000024400000E03F00407A108DEDB5A02E
:10467000F7C6B03ED820020070B54FF0FF3006F00C
:1046800099F804466FF07F4006F094F806462046FD
:1046900019F002FD00220C4B19F074FD044630465F
:1046A0000D4619F0F9FC06A3D3E9002319F094FE96
:1046B00002460B462046294619F0B2FB70BD00BFEA
:1046C0000000E0DFFFFF6F430000F03D000000004E
:1046D00008B511F03BFADFED0C7A07EE100A67EE31
:1046E000277A17EE900A19F0F9FC05A3D3E9002305
:1046F00019F072FE19F0F6FF08BD00BFAFF300809D
:10470000EA2E4454FB2119400000B443000000008D
:1047100008B511F02FFADFED0C7A07EE100A67EEFC
:10472000277A17EE900A19F0D9FC05A3D3E90023E4
:1047300019F052FE19F0D6FF08BD00BFAFF300809C
:10474000EA2E4454FB2119400000B443000000004D
:1047500038B50C46054608A3D3E900232005090B0C
:104760001AF058F82B6B404280B2988100206C619F
:1047700038BD00BFAFF3008000E1F5050000000088
:104780002DE9F04F046985B0E3699B07FCD12368EC
:10479000C3F3400BBBF1000F40F0AF80B0F80CA0AA
:1047A00015468046BAF1000F23D0BAF1010F62D04E
:1047B000BAF1020F40F0A4805500E1685448C5F5F5
:1047C0003B438033B3FBF5F31A0421F47F0102F479
:1047D0007F020A43E260E2685B00A0FB03135B0810
:1047E00022F07F4242EA03635846E36005B0BDE829
:1047F000F08FE2684BF6803B05EB850022F0FF036B
:10480000ABEB4000019319F047FC0646B8F80E00E8
:104810000F4619F051FC3CA3D3E9002319F0B2FC78
:1048200080460BFB05F0894619F036FC02460B4624
:104830004046494619F0A6FC02460B46304639462A
:1048400019F0ECFA064668000F4619F025FC0246FE
:104850000B463046394619F0BFFD19F06BFF019B3E
:10486000C0B21843E060E368504623F47F43E3603E
:1048700005B0BDE8F08FE2684BF6803A05EB8500A5
:1048800022F0FF03AAEB4000019319F005FCCDE9EB
:104890000201B8F80E0019F00FFC1BA3D3E90023A6
:1048A00019F070FC06460AFB05F00F4619F0F4FB00
:1048B00002460B463046394619F064FC02460B4668
:1048C000DDE9020119F0AAFA064668000F4619F060
:1048D000E3FB02460B463046394619F07DFD19F0E0
:1048E00029FF019AC3B21343E360E368584623F4F7
:1048F0007F43E36005B0BDE8F08F6FF0100075E70F
:104900006FF00C0072E700BF95D626E80B2E113E23
:10491000ABAAAAAA000000004F4A21F0004393422C
:104920002DE970430D4604464FDC4C4A93420E4637
:104930000FDC45A3D3E9002319F072FA0022484B9B
:1049400019F0B0FE002856D02B4620461946BDE887
:104950007083444A934242DCB3F1804F4BDD1AF03E
:104960008BF92246804689462B462046294619F077
:1049700009FC00223A4B19F053FA1BF09BF902464E
:104980000B464046494619F04BFA02460B460020BA
:10499000334919F021FD424604460D464B46404638
:1049A000494619F03DFA0B4602462946204619F0C1
:1049B00037FA01F0FDFE04460B46002E0BDC03F136
:1049C000004320461946BDE870830B46024619F0A5
:1049D00027FA04460B4620461946BDE870831AF0B4
:1049E0004BF901F0E5FE1AA3D3E9002319F018FAF8
:1049F00004460B46E1E722462B462046294619F09D
:104A0000C1FB80468946204629461AF035F9002226
:104A10000446134B0D464046494619F001FA1BF077
:104A200049F900220E4B19F0FBF902460B464046AD
:104A3000494619F0D1FC22462B4619F0F1F900F055
:104A4000D3FA04460B46B8E79C7500883CE4377EF1
:104A5000EF39FAFE422EE63FFFFFEF7FFFFF2F3ECA
:104A60000000F03F0000B0412DE9F84FC24B21F0AB
:104A700000469E420D468A46044610DDBF4B9E42CC
:104A800000F3B58000F0B080BD4BBE49BE4CBAF11A
:104A9000000FD8BF0B4620461946BDE8F88FBB4B28
:104AA0009E4200F3C180A3F1DE739E4240F3AB80CF
:104AB0004FF0FF3B22462B462046294619F062FB69
:104AC00002460B468046894619F05CFB92A3D3E967
:104AD000002306460F4619F055FB91A3D3E90023A6
:104AE00019F09EF932463B4619F04CFB8EA3D3E9F0
:104AF000002319F095F932463B4619F043FB8CA38D
:104B0000D3E9002319F08CF932463B4619F03AFB01
:104B100089A3D3E9002319F083F932463B4619F003
:104B200031FB87A3D3E9002319F07AF942464B46BB
:104B300019F028FB84A3D3E9002380468946304638
:104B4000394619F01FFB82A3D3E9002319F066F957
:104B500032463B4619F016FB7FA3D3E9002319F038
:104B60005DF932463B4619F00DFB7DA3D3E90023E6
:104B700019F054F932463B4619F004FB7AA3D3E905
:104B8000002319F04BF932463B4619F0FBFABBF112
:104B9000FF3F02460B466ED04046494619F040F9A9
:104BA00022462B4619F0EEFA794E7A4B4FEACB0BA0
:104BB0005E449B44DBE9002319F030F922462B4682
:104BC00019F02CF90B460246D6E9000119F026F936
:104BD000BAF1000F04460B46BFF65DAF01F100438A
:104BE00020461946BDE8F88F00283FF44DAF224615
:104BF0002B462046294619F013F904460B46204659
:104C00001946BDE8F88F5AA3D3E9002319F008F933
:104C10000022614B19F046FD00283FF449AF2B46B6
:104C200020461946BDE8F88F1AF026F85B4B9E42E5
:104C300004460D4630DCA3F550239E4255DC024667
:104C40000B4619F0EDF80022534B19F0E7F800225B
:104C500006460F464FF080432046294619F0E0F8FB
:104C600002460B463046394619F0B6FB4FF0000BB2
:104C700004460D461EE74046494619F0D1F8224643
:104C80002B4619F07FFA0B4602462946204619F0BA
:104C9000C5F804460B46FEE6414B9E421ADC002254
:104CA000404B19F0BBF8002206460F463D4B20460C
:104CB000294619F067FA0022374B19F0B1F802467D
:104CC0000B463046394619F087FB4FF0020B04467D
:104CD0000D46EFE602460B460020334919F07CFBF7
:104CE0004FF0030B04460D46E4E600222A4B19F070
:104CF00095F8002206460F46274B2046294619F014
:104D00008FF802460B463046394619F065FB4FF0E6
:104D1000010B04460D46CDE611DA22E33AAD903F91
:104D2000EB0D76244B7BA93F513DD0A0660DB13FE2
:104D30006E204CC5CD45B73FFF8300922449C23F4A
:104D40000D5555555555D53F2F6C6A2C44B4A2BF0F
:104D50009AFDDE522DDEAD3F6D9A74AFF2B0B33FD7
:104D6000711623FEC671BC3FC4EB98999999C93F4F
:104D70009C7500883CE4377EFFFF0F440000F07F05
:104D8000FB21F93FFB21F9BF182D4454FFFFDB3F06
:104D9000E8200200082102000000F03FFFFFF23F80
:104DA000FF7F03400000F83F0000F0BF000000005C
:104DB0002DE9F047C1F30A59A9F2FF36132E0B462D
:104DC0000D46044607468846824622DC002E4FDB0D
:104DD0003D4A42FA06F901EA090202431ED038A30D
:104DE000D3E9002319F01CF80022002319F05AFC23
:104DF00050B1002D04DD4FF4801343FA06F6B044A1
:104E000028EA09054FF0000A544629462046BDE825
:104E1000F087332E06DDB6F5806F3DD0194620466B
:104E2000BDE8F087A9F213494FF0FF3222FA09F9E1
:104E300010EA090FF2D022A3D3E9002318F0F0FF03
:104E40000022002319F02EFC0028DDD0002D09DD02
:104E5000142E2FD00123C6F1340603FA06F63719B3
:104E600028BF9844454627EA090A54462946CDE713
:104E700013A3D3E9002318F0D3FF0022002319F075
:104E800011FC0028C0D0002D0FDB55EA040709D023
:104E90004FF0000A0D4DB7E702460B4618F0C0FF71
:104EA0000446BCE7BA463D46AEE74FF0000A4FF075
:104EB0000045A9E705F10108D4E700BFAFF3008082
:104EC0009C7500883CE4377EFFFF0F000000F03F38
:104ED000C1F30A522DE9F843A2F2FF36132E0B4616
:104EE0000D460446884607461DDC002E40DB3C4A42
:104EF00042FA06F901EA09020243864618D036A3AF
:104F0000D3E9002318F08CFF0022002319F0CAFB1C
:104F100020B1002D42DB28EA090500273C4629463E
:104F20002046BDE8F883332E06DDB6F5806F2FD01E
:104F300019462046BDE8F883A2F213424FF0FF392C
:104F400029FA02F910EA090FF2D023A3D3E90023CA
:104F500018F066FF0022002319F0A4FB0028DDD022
:104F6000002D21DB454627EA09073C462946D7E7BD
:104F700019A3D3E9002318F053FF0022002319F0EE
:104F800091FB0028CAD0002D19DB00273D46C5E75C
:104F900002460B4618F044FF0446CAE74FF480135C
:104FA00043FA06F6B044B6E7142E10D00123C6F13A
:104FB000340603FA06F6371928BF9844D2E725F0DD
:104FC0000042084B224318BF1D460027A6E705F103
:104FD0000108C7E7AFF300809C7500883CE4377E8A
:104FE000FFFF0F000000F0BF2DE9F04FD64B9942B4
:104FF00089B00E460F46824613DCD44B21F00044A4
:105000009C4218DD0022D24B19F024FB002879D0F5
:10501000002200230020CF4919F0DEF909B0BDE8D5
:10502000F08FCD4B99422FDD5246334618F0F8FEF3
:1050300009B0BDE8F08FC94B9C4270DDC84B1F44DE
:105040009F427ED8504631460022C64B18F0E8FEFB
:105050004FEA215BABF2FF3BBBF1000F04460D466C
:105060000F4640F3E0815246334618F0D7FE024621
:105070000B460020BB4918F0D1FE22462B4619F002
:10508000ABF9CDE900010BE0B74B9F42DADD00221E
:105090000023CDE900234FEA275B5446ABF2FF3BE8
:1050A000B24BC7F313079F4247F07F5500F3E780E9
:1050B00045F44015204629460022AA4B18F0AEFEC2
:1050C000002204460D46AA4B19F05CF822462B46F6
:1050D00019F058F8A246CDE902012E4680468946CD
:1050E000002F3AD1002200232046294619F0B2FAB7
:1050F000002800F0CE80BBF1000F40F07681002048
:10510000014695E7524633465046314618F086FE32
:1051100002460B4619F060F909B0BDE8F08F002295
:10512000944B18F07DFE0022002319F0BBFA0028F2
:1051300000F0CC80904B9C4200F3C8805046314632
:1051400076E700228A4B19F01DF85246334619F0D3
:1051500019F84FF0000B8046894600224FF080433B
:105160005046314618F05CFE02460B46504631462A
:1051700019F032F902460B46CDE9022319F002F884
:105180005DA3D3E9002304460D4618F0FBFF5CA3A2
:10519000D3E9002318F044FE22462B4618F0F2FF14
:1051A00059A3D3E9002318F03BFE22462B4618F002
:1051B000E9FF57A3D3E9002318F032FE22462B461D
:1051C00018F0E0FF54A3D3E9002318F029FE22468B
:1051D0002B4618F0D7FF52A3D3E9002318F020FE86
:1051E00022462B4618F0CEFF4FA3D3E9002318F038
:1051F00017FE22462B4618F0C5FF04460D46BBF1AC
:10520000000F00F0BB80584618F056FF48A3D3E9C2
:105210000023CDE9040118F0B5FF4246CDE90601AF
:105220004B462046294618F0FBFDDDE9022318F025
:10523000A9FF41A3D3E9002304460D46DDE904019B
:1052400018F0A0FFDDE9002318F0EAFD02460B4646
:105250002046294618F0E4FD02460B4640464946E2
:1052600018F0DCFD5246334618F0D8FD02460B46D6
:10527000DDE9060118F0D2FD09B0BDE8F08F45F474
:105280000015C7F5801720462946BF100BF1010B0A
:1052900012E72BA3D3E900232046294618F072FF1A
:1052A00002460B4600202F4918F0B8FDDDE9022325
:1052B00018F068FF06460F46BBF1000F6DD102469D
:1052C0000B462046294618F0A9FDB1E65246334662
:1052D0005046314618F056FF0022254B18F052FF79
:1052E00002460B465046314618F098FD09B0BDE81D
:1052F000F08F00BFAFF3008044523EDF12F1C23F97
:105300009FC678D0099AC33FDE03CB966446C73F59
:10531000AF788E1DC571CC3F599322942449D23F5A
:1053200004FA97999999D93F935555555555E53FA5
:105330000000E0FE422EE63F763C7935EF39EA3D4B
:10534000555555555555E53F7982DA3FFFFFEF3FFB
:105350000000F0BF000050C3FFFFEF7FFFFF1F3EC4
:105360003C412D400000F03FFFFF3F439DA0060061
:105370000000E03F00005043FFFF8F3C42464B4699
:1053800018F04EFDDDE9022318F0FCFE02460B4644
:105390004046494618F042FDA2E7584618F08CFEF8
:1053A00027A3D3E9002382468B4618F0EBFE26A301
:1053B000D3E90023804689465046594618F0E2FE5C
:1053C000DDE9002318F02CFD02460B463046394635
:1053D00018F024FD22462B4618F020FD02460B460D
:1053E0004046494618F01AFD22E6584618F064FE79
:1053F00015A3D3E9002306460F4618F0C3FEDDE9E6
:10540000002318F00DFD0EA3D3E9002304460D463A
:105410003046394618F0B6FE02460B46204629466D
:1054200018F0FEFC04E60022094B18F0F7FC0246D7
:105430000B465046314618F0F1FC1EE6AFF30080F3
:105440000000E0FE422EE63F763C7935EF39EA3D3A
:105450000000F03F0000000008B519F087FF04A32A
:10546000D3E9002318F0B8FF08BD00BFAFF30080F8
:10547000EF39FAFE422EE63F2DE9F043DFF8B48023
:105480008BB004460D4600F06BFF98F900300133F5
:1054900006460F462BD022462B462046294619F0B9
:1054A0000BF9814618BB2046294619F0E5FB1CA3E1
:1054B000D3E9002319F0F6F8C8B11B4A98F9003077
:1054C000CDF820900321CDE90445CDE902458DE8D2
:1054D00006008BB9154B4FF06042CDE906236846B4
:1054E0001BF02CFB70B1089B9BB9DDE906673046C9
:1054F00039460BB0BDE8F0830D490020022BCDE901
:105500000601ECD11BF06AFC22230360089B002BF0
:10551000EBD01BF063FC089B0360E6E7AFF3008071
:105520007DF8B98FCE338640FC380200FFFFEF478D
:105530000000F07F160200202DE9F043DFF8E48040
:105540008BB004460D4600F0BBFF98F900300133E4
:1055500006460F4633D0204629461BF0E9FA70B3C1
:1055600029A3D3E900232046294619F09BF8814658
:1055700050BB27A3D3E900232046294619F074F82D
:10558000E8B198F90030244ACDF820900426002094
:105590000021022BCDE90445CDE902450096019298
:1055A000CDE9060129D068461BF0C8FA28B3089B4C
:1055B0001BB11BF013FC089B0360DDE90667304656
:1055C00039460BB0BDE8F083134A98F900300192D8
:1055D00003210022CDE90445CDE90245009108925E
:1055E0002BB90E4B4FF06042CDE90623DBE70C49A7
:1055F0000020022BCDE90601D5D11BF0EFFB2223C1
:105600000360D4E7AFF30080EF39FAFE422E864004
:1056100051302DD5104987C004390200FFFFEF47F4
:105620000000F07F160200202DE9F84FC44E21F053
:105630000043B3420C4605460DDD03F1404303F53C
:105640008013034340F0B980002940F340810020DB
:105650000021BDE8F88FBB4EB34240F3A68000297D
:10566000C0F2788102460B460020B74918F0D6FBFD
:105670000022B64B18F086FD04460D461AF01AFBC0
:1056800095A3D3E90023894680462946204618F091
:1056900079FD93A3D3E9002318F0C2FB22462B46E1
:1056A00018F070FD90A3D3E9002318F0B7FB224651
:1056B0002B4618F067FD8EA3D3E9002318F0B0FB4A
:1056C00022462B4618F05EFD8BA3D3E9002318F089
:1056D000A5FB22462B4618F055FD89A3D3E90023EC
:1056E00018F09EFB22462B4618F04CFD86A3D3E90A
:1056F000002382468B462046294618F043FD84A3AA
:10570000D3E9002318F08AFB22462B4618F03AFD15
:1057100081A3D3E9002318F083FB22462B4618F01F
:1057200031FD7FA3D3E9002318F078FB22462B46F6
:1057300018F028FD0022844B18F072FB02460B463D
:105740005046594618F048FE42464B4618F01AFD9E
:10575000002682468B4632464B463046494618F074
:1057600011FD02460B462046294618F057FB3246EB
:1057700004460D464B464046494618F051FB02464A
:105780000B462046294618F027FE02460B46504697
:10579000594618F045FB32464B4618F041FB02468D
:1057A0000B4618F03DFBBDE8F88F694A93420EDCCA
:1057B0005DA1D1E90001BDE8F88F02460B4618F063
:1057C0002DFB02460B4618F007FEBDE8F88F024697
:1057D0000B4618F0D7FC40A3D3E9002306460F463A
:1057E00018F0D0FC3EA3D3E9002318F019FB324691
:1057F0003B4618F0C7FC3CA3D3E9002318F00EFB8E
:1058000032463B4618F0BEFC39A3D3E9002318F01A
:1058100007FB32463B4618F0B5FC37A3D3E900231B
:1058200018F0FCFA32463B4618F0ACFC34A3D3E93E
:10583000002318F0F5FA32463B4618F0A3FC32A3D9
:10584000D3E90023804689463046394618F09AFC51
:105850002FA3D3E9002318F0E1FA32463B4618F0B3
:1058600091FC2DA3D3E9002318F0DAFA32463B4627
:1058700018F088FC2AA3D3E9002318F0CFFA3246A7
:105880003B4618F07FFC00222F4B18F0C9FA024665
:105890000B464046494618F09FFD2A46234618F01D
:1058A00071FC02460B4622A1D1E9000118F0B6FABC
:1058B00002460B462846214618F0B0FA02460B462F
:1058C00019A1D1E9000118F0A9FABDE8F88F1AA1D1
:1058D000D1E90001BDE8F88F09F7FD0DE13D023F78
:1058E00088B20175E0EF493F3B8F68B52882A43F3D
:1058F0005544880E55C1C93F7D6FEB0312D6D43F86
:10590000555555555555C53F82922EB1C5B8B33F33
:1059100059018D1B6C06E63FC88A599CE52A004058
:105920004B2D8A1C273A0340182D4454FB21F93F84
:10593000075C143326A6913C182D4454FB210940E2
:10594000FFFFEF3FFFFFDF3F0000F03F0000E03FC1
:105950000000603C00225C4B18F062FA00225B4BB6
:1059600018F010FC40A3D3E9002304460D4618F0BC
:1059700009FC3FA3D3E9002318F052FA22462B4634
:1059800018F000FC3CA3D3E9002318F047FA2246A4
:105990002B4618F0F7FB3AA3D3E9002318F040FA9E
:1059A00022462B4618F0EEFB37A3D3E9002318F06C
:1059B00035FA22462B4618F0E5FB35A3D3E9002340
:1059C00018F02EFA22462B4618F0DCFB804689465A
:1059D000204629461AF06EF92FA3D3E90023064684
:1059E0000F462046294618F0CDFB2DA3D3E900230E
:1059F00018F014FA22462B4618F0C4FB2AA3D3E968
:105A0000002318F00DFA22462B4618F0BBFB28A302
:105A1000D3E9002318F002FA22462B4618F0B2FB15
:105A20000022294B18F0FCF902460B464046494635
:105A300018F0D2FC32463B4618F0A4FB1EA3D3E973
:105A4000002318F0EBF932463B4618F0E9F902461C
:105A50000B4618F0E5F902460B4619A1D1E9000101
:105A600018F0DCF9BDE8F88F09F7FD0DE13D023FC4
:105A700088B20175E0EF493F3B8F68B52882A43FAB
:105A80005544880E55C1C93F7D6FEB0312D6D43FF4
:105A9000555555555555C53F82922EB1C5B8B33FA2
:105AA00059018D1B6C06E63FC88A599CE52A0040C7
:105AB0004B2D8A1C273A0340075C143326A6913CE1
:105AC000182D4454FB2109400000F03F0000E03F46
:105AD000434A91422DE9F8430C46054639DD414AD7
:105AE000914209DD02F17952914240DD02460B46B6
:105AF00018F096F9BDE8F88301F1404202F58012F2
:105B0000024330D0B1F1804F3ADC0022364B18F01E
:105B100085F902460B4604460D4618F081F92246E7
:105B200006460F462B462046294618F02BFB024618
:105B30000B463046394618F073F91AF0BBF80B469D
:105B400002462946204618F06BF9BDE8F843FFF7F6
:105B50004BBA02460B4618F061F902460B4618F0A4
:105B60003BFCBDE8F88300200021BDE8F88300F08D
:105B70001FFE19A3D3E9002318F052F9BDE8F883FA
:105B800002460B4618F0FEFA0022174B18F046F9B1
:105B90001AF090F82A468046894623462846214630
:105BA00018F03EF9424606460F464B462846214627
:105BB00018F036F902460B4600200B4918F00CFC91
:105BC0000B4602463946304618F028F9BDE8F8433E
:105BD00000F0EEBDAFF30080EF39FAFE422EE63F53
:105BE000FFFFEF3FFFFFAF410000F03F000000006C
:105BF0002DE9F047C44B21F00048984584B00D468C
:105C0000044616DD08F1404808F58018034658EAB6
:105C1000030326D002460B4618F000F90B46024655
:105C200018F0DAFB04460B462046194604B0BDE8DE
:105C3000F087B64B98458A462EDCB8F1795F80F242
:105C40006D8195A3D3E9002318F0EAF80022B04B48
:105C500018F028FD00B32B462046194604B0BDE8D5
:105C6000F0878FA3D3E9002318F08CFA8EA3D3E931
:105C7000002306460F462046294618F083FA0246BE
:105C80000B463046394618F0CBF804460B46204602
:105C9000194604B0BDE8F0872046294618F0ECFF0D
:105CA00002460B4600209A4918F0B8F80022994B9A
:105CB00018F068FA7EA3D3E9002304460D4618F0D5
:105CC00061FA7DA3D3E9002318F0AAF822462B46F7
:105CD00018F058FA7AA3D3E9002318F09FF8224667
:105CE0002B4618F04FFA78A3D3E9002318F098F860
:105CF00022462B4618F046FA75A3D3E9002318F084
:105D00008DF822462B4618F03DFA73A3D3E9002301
:105D100018F086F822462B4618F034FA70A3D3E91F
:105D20000023CDE900012046294618F02BFA6EA386
:105D3000D3E9002318F072F822462B4618F022FA15
:105D40006BA3D3E9002318F06BF822462B4618F01A
:105D500019FA69A3D3E9002318F060F822462B460C
:105D600018F010FA6A4B002218F05AF8CDE9020137
:105D70002046294619F09EFF674B984506460F4678
:105D800067DCDDE90223DDE9000118F025FB32467E
:105D9000CDE900013B463046394618F041F802464D
:105DA0000B46DDE9000118F0EDF94FF00008CDE9F0
:105DB000000142463B464046394618F0E3F90246A8
:105DC0000B462046294618F029F8424604460D465F
:105DD0003B463046394618F023F802460B4620462B
:105DE000294618F0F9FA02460B4618F019F802464F
:105DF0000B462DA1D1E9000118F010F802460B4620
:105E0000DDE9000118F00AF8424604460D463B461B
:105E10004046394618F004F802460B4638A1D1E94D
:105E2000000117F0FBFF02460B462046294617F0FB
:105E3000F5FF0B46024632A1D1E9000117F0EEFF53
:105E400004460B46BAF1000F3FF7EEAE03F10043F4
:105E5000EAE6DDE90223DDE9000118F0BDFA324689
:105E60003B4618F08FF932463B4617F0D9FF024601
:105E70000B4617F0D5FF0CA3D3E9002317F0CEFF94
:105E80000B46024606A1D1E9000117F0C7FF044600
:105E90000B46D7E7AFF300809C7500883CE4377E63
:105EA000182D4454FB21F93F075C143326A6913C7E
:105EB00009F7FD0DE13D023F88B20175E0EF493F72
:105EC0003B8F68B52882A43F5544880E55C1C93F11
:105ED0007D6FEB0312D6D43F555555555555C53FEB
:105EE00082922EB1C5B8B33F59018D1B6C06E63FB7
:105EF000C88A599CE52A00404B2D8A1C273A03404A
:105F0000182D4454FB21E93FFFFFEF3FFFFFDF3F28
:105F10000000F03F0000E03F3233EF3F02460B4607
:105F200018F030F938A3D3E9002306460F4618F0DD
:105F300029F937A3D3E9002317F072FF32463B4615
:105F400018F020F934A3D3E9002317F067FF324695
:105F50003B4618F017F932A3D3E9002317F060FF8E
:105F600032463B4618F00EF92FA3D3E9002317F071
:105F700055FF32463B4618F005F92DA3D3E900231F
:105F800017F04EFF32463B4618F0FCF82AA3D3E93F
:105F90000023804689463046394618F0F3F828A396
:105FA000D3E9002317F03AFF32463B4618F0EAF8EF
:105FB00025A3D3E9002317F033FF32463B4618F000
:105FC000E1F823A3D3E9002317F028FF32463B462C
:105FD00018F0D8F80022204B17F022FF02460B469B
:105FE0004046494618F0F8F922462B4618F0CAF800
:105FF00022462B4617F014FF04460B46204619464E
:1060000004B0BDE8F08700BF09F7FD0DE13D023F98
:1060100088B20175E0EF493F3B8F68B52882A43F05
:106020005544880E55C1C93F7D6FEB0312D6D43F4E
:10603000555555555555C53F82922EB1C5B8B33FFC
:1060400059018D1B6C06E63FC88A599CE52A004021
:106050004B2D8A1C273A03400000F03F000000004F
:106060002DE9F84F5442144323F00049704E49EA99
:10607000D474B44286460F4640D84442044321F0CB
:10608000004B4BEAD474B4428A4637D803F14044FB
:1060900004F5801414434AD09C1704F0020444EA27
:1060A000D17450EA0B0131D052EA090137D0B14521
:1060B00052D0B34533D0ABEB09094FEA2959B9F1B6
:1060C0003C0F3BDC002B66DB7046394618F084F948
:1060D00018F0D2FDFEF7C8FC012C58D0022C48D095
:1060E000002C5ED040A3D3E9002317F097FE40A315
:1060F000D3E9002317F092FEBDE8F88F1046194649
:1061000072463B4617F08CFEBDE8F88F022C19D082
:10611000032C10D138A1D1E90001BDE8F88FBAF104
:10612000000F14DB36A1D1E90001BDE8F88FBDE80E
:10613000F84FFEF799BC3946BDE8F88F30A1D1E998
:106140000001C9E72AA1D1E90001BDE8F88F2EA11D
:10615000D1E90001BDE8F88FCB4524D0022CF1D065
:10616000032CD7D0012C4FF0000027D00021BDE830
:10617000F88F1DA3D3E9002317F050FE02460B460B
:106180001BA1D1E9000117F049FEBDE8F88F01F12C
:106190000041BDE8F88F19F13C0F95DA002000218D
:1061A0009AE7BDE8F88F022C16D0032C0FD0012CF3
:1061B00008D017A1D1E90001BDE8F88F4FF00041E8
:1061C000BDE8F88F14A1D1E90001BDE8F88F14A152
:1061D000D1E90001BDE8F88F13A1D1E90001BDE8C4
:1061E000F88F00BFAFF30080075C143326A6A13CF4
:1061F000182D4454FB210940182D4454FB2109C09B
:10620000182D4454FB21F93F182D4454FB21F9BFAC
:10621000182D4454FB21E93F182D4454FB21E9BFBC
:10622000D221337F7CD902C0D221337F7CD9024076
:106230000000F07F0000000043422DE9F0470343D7
:1062400021F00048424A48EAD373934206460F467B
:1062500016D890454BD03F4B98458A461EDC3AA352
:10626000D3E90023044617F0DBFD0022002318F0D9
:1062700019FA002845D03B4620461946BDE8F0876C
:1062800002460B4617F0CAFD0B46024618F0A4F86A
:1062900004460B4620461946BDE8F0872E4B98452C
:1062A000044645462FDD02464346414617F0B8FDF9
:1062B000224606460F4643460020254917F0AEFD0C
:1062C00002460B463046394618F086F8FEF78CFE3B
:1062D000224B002217F056FFBAF1000F04460B467E
:1062E000D8DA01F1004320461946BDE8F0870022C4
:1062F000002318F071F804460B4620461946BDE805
:10630000F0873446454622462B462046294617F05C
:1063100087FD22462B4606460F4617F033FF2246DE
:10632000804689462B460020094917F077FD024632
:106330000B464046494618F04FF832463B4617F0A8
:106340006FFDC3E7AFF300809C7500883CE4377EA7
:106350000000F03FFFFF2F3EFFFFDF3F0000E03F68
:106360004F4A2DE9F84321F0004494420B4605467C
:106370001BDC4C4A944222DD4B4A944263DD4B4A7B
:1063800094427BDD4A4A944246DD0132944240D039
:1063900041A3D3E900231046194617F0F3FE064641
:1063A0000F4630463946BDE8F88302460B4617F0E3
:1063B000E9FE06460F4630463946BDE8F88318F038
:1063C0005BFC02F0A9FC00223A4B8046894617F09C
:1063D00027FDB4F1725F06460F46ECDB42464B46A2
:1063E0004046494617F0CEFE32463B4604460D462F
:1063F0003046394617F014FD02460B462046294622
:1064000017F0EAFF00222B4B17F00AFD06460F4655
:10641000D1E7294A9042BBD82846194618F02CFCEF
:106420000022264B17F0AEFE00F04AF80022044688
:106430000D46224B17F0A6FE22462B4617F0A2FE71
:1064400006460F46B7E718F017FC00F039F80022AF
:106450001A4B06460F4617F095FE32463B46044659
:106460000D460020154917F0B7FF02460B4620469F
:10647000294617F0D5FC06460F469CE718F0FCFBB2
:1064800000F01EF800220D4B17F07CFE06460F466A
:1064900091E700BFAFF300809C7500883CE4377E35
:1064A000FFFFEF7F422ED63FFFFF3540412E864053
:1064B000CD3386400000F03F7DF8B98F0000E03F0B
:1064C0002DE9F04FB04F21F00042BA4283B00C46A4
:1064D0004FEAD17605460DD9AC4FBA4225D9C1F362
:1064E0001303034340F0EF800EB10020014603B0D8
:1064F000BDE8F08FA64B9A4200F2CC80A54B9A42A1
:1065000000F2DE808AA3D3E9002317F089FC002281
:10651000A14B18F0C7F8002800F005812846214655
:1065200000229D4B17F07CFCE1E783A3D3E9002315
:1065300018F0B8F8002840F0CB802846214680A308
:10654000D3E9002318F090F80028CED1934B2846C9
:1065500003EBC60621467CA3D3E9002317F012FE05
:10656000D6E9002317F05CFC18F0BCF8804617F061
:10657000A3FD77A3D3E9002306460F4617F002FEDA
:1065800002460B462846214617F048FC72A3D3E981
:106590000023CDE900013046394617F0F3FD82466D
:1065A0008B4652465B46DDE9000117F037FC054695
:1065B0000C462A4623462846214617F0E3FD68A3E9
:1065C000D3E9002306460F4617F0DCFD66A3D3E9A6
:1065D000002317F023FC32463B4617F0D3FD64A39B
:1065E000D3E9002317F01CFC32463B4617F0CAFDE6
:1065F00061A3D3E9002317F011FC32463B4617F0A4
:10660000C1FD5FA3D3E9002317F00AFC32463B46E5
:1066100017F0B8FD02460B462846214617F0FEFB50
:1066200006460F462846214632463B46B8F1000F43
:1066300056D017F0A7FD324604460D463B460020D3
:106640004FF0804117F0EAFB02460B4620462946F0
:1066500017F0C2FE02460B465046594617F0DEFBC5
:10666000DDE9002317F0DAFB0B4602464A49002019
:1066700017F0D4FB6FF47F7398454FDA08F57A78FA
:1066800001EB085100224FF0B87317F07BFD03B007
:10669000BDE8F08F424B9A423FF658AF414BF400B1
:1066A0002344D3E9002317F0B9FB3F4BC6F101089F
:1066B0002344CDE90001D3E900ABA8EB060870E75D
:1066C0004FF0000875E702460B4617F0A9FB0EE7EE
:1066D00017A3D3E900231046194617F053FD06E728
:1066E00017F050FD0022804689464FF08043304627
:1066F000394617F093FB02460B464046494617F0D1
:106700006BFE2A46234617F089FB02460B46002003
:10671000214917F083FB03B0BDE8F08F01EB08516E
:1067200003B0BDE8F08F804643E700BFAFF30080C1
:106730009C7500883CE4377EEF39FAFE422E864095
:1067400051302DD5104987C0FE822B654715F73F84
:106750000000E0FE422EE63F763C7935EF39EA3D17
:10676000D0A4BE726937663EF16BD2C541BDBB3E57
:106770002CDE25AF6A56113F93BDBE166CC1663F35
:106780003E5555555555C53F412E8640FFFFEF7F7D
:10679000422ED63FFFFF2F3E0000F03F282102008F
:1067A000B1A2F03F382102004821020000000000A1
:1067B0002DE9F04FB1F5801F85B006460F460B4618
:1067C0005ADA024621F00044224300F0F880002902
:1067D000C0F27A810022D64B17F0D4FCD54A0B4682
:1067E000934206460F466FF0350C4ADCC3F313059F
:1067F00005F5152E0EF6647E0EF4801E8EF07F5287
:1068000082F440121C1542EA0507A4F2FF346444E6
:106810000022C94B3046394604EB1E5417F0FEFAED
:10682000AB1CC3F31303022B82468B464FF00002CE
:1068300030DC002317F00EFF002800F0C980002C88
:1068400000F04B81204617F037FCA5A3D3E90023C5
:1068500006460F4617F096FCA3A3D3E9002304468F
:106860000D463046394617F08DFC02460B46204651
:10687000294617F0D5FA0AE0AE4A93424FF0000CD1
:10688000B4DD32463B463046394617F0C9FA05B00A
:10689000BDE8F08F4FF0804317F0C2FA02460B4676
:1068A0005046594617F098FD064620460F4617F009
:1068B00003FC3246CDE900013B4630463946CDE97E
:1068C000026717F05FFC02460B468046894617F0C8
:1068D00059FC87A3D3E9002306460F4617F052FC64
:1068E00085A3D3E9002317F09BFA32463B4617F005
:1068F00049FC83A3D3E9002317F092FA32463B46C2
:1069000017F040FC80A3D3E9002317F089FA424630
:106910004B4617F037FC7EA3D3E900238046894617
:106920003046394617F02EFC7BA3D3E9002317F03D
:1069300077FA32463B4617F025FC79A3D3E90023CA
:1069400017F06EFA32463B4617F01CFC0B46024627
:106950004946404617F064FAA5F5C223C5F5D72588
:10696000A3F27A4351351D43002D8046894656DDFA
:106970000022724B5046594617F004FC52465B46C3
:1069800017F000FC06460F46002C68D132463B4605
:106990004046494617F044FADDE9022317F0F2FBBE
:1069A00002460B463046394617F038FA02460B4687
:1069B0005046594617F032FA05B0BDE8F08F002274
:1069C000002300205E4917F007FD05B0BDE8F08FF9
:1069D00055A3D3E900235046594617F0D3FB02468E
:1069E0000B460020554917F019FA524606460F4645
:1069F0005B465046594617F0C5FB02460B463046EB
:106A0000394617F0BFFB06460F46002C40F09A802F
:106A100002460B465046594617F000FA37E7002C5D
:106A200000F0A4802EA3D3E90023DDE9000117F0D4
:106A3000A9FB42464B4604460D465046594617F0C0
:106A4000EDF9DDE9022317F09DFB27A3D3E900232D
:106A500006460F46DDE9000117F094FB21E020A374
:106A6000D3E90023DDE9000117F08CFB32463B46F9
:106A700004460D464046494617F0D2F9DDE90223A7
:106A800017F080FB18A3D3E9002380468946DDE98F
:106A9000000117F077FB02460B464046494617F0C7
:106AA000BFF902460B463046394617F0B7F9524651
:106AB0005B4617F0B3F902460B462046294617F00D
:106AC000ADF905B0BDE8F08F02460B4617F0A6F908
:106AD0000022002317F080FCD9E600200021D6E632
:106AE0000000E0FE422EE63F763C7935EF39EA3D84
:106AF00044523EDF12F1C23FDE03CB966446C73FED
:106B0000599322942449D23F935555555555E53F05
:106B10009FC678D0099AC33FAF788E1DC571CC3F10
:106B200004FA97999999D93F555555555555D53FDB
:106B300000005043FFFFEF7F0000F03F0000E03F08
:106B4000000050C3204617F0B7FA0FA3D3E9002383
:106B50008046894617F016FB0DA3D3E900230446AF
:106B60000D464046494617F00DFB9AE702460B4694
:106B70005046594617F052F9DDE9022317F002FB9F
:106B800014E700BFAFF300800000E0FE422EE63FB6
:106B9000763C7935EF39EA3DB1F5801F2DE9F843B0
:106BA00004460D460B461ADA024621F000463243EF
:106BB00059D000295FDB00223B4B17F0E3FA3B4A38
:106BC0000B4693420D4604466FF035010CDD22461C
:106BD0002B462046294617F023F9BDE8F883334AAF
:106BE00093424FF00001F2DC1815A0F2FF30084488
:106BF0004FEAD0794844C3F3130817F05DFAC9F59A
:106C00007F73033348EA035506460F46204629465C
:106C1000FFF7CEFD1EA3D3E9002380468946304608
:106C2000394617F0AFFA1CA3D3E9002304460D46FA
:106C30004046494617F0A6FA02460B46204629462A
:106C400017F0EEF816A3D3E9002304460D463046AC
:106C5000394617F097FA02460B462046294617F0A8
:106C6000DFF8BDE8F883002200230020104917F068
:106C7000B3FBBDE8F88302460B4617F0CFF80022BD
:106C8000002317F0A9FBBDE8F88300BFAFF3008035
:106C9000362BF111F3FE593D0EE526157BCBDB3F7C
:106CA00000609F501344D33F00005043FFFFEF7F2D
:106CB000000050C3000000002DE9F04F23F0004712
:106CC00057EA020493B037D0674C21F00046A64241
:106CD00083460D4629DC9A46964625D0A74224DCF9
:106CE000614CA74279D0002D89468046CDE900232A
:106CF00077DB0024BEF1000F2CD15B4B9F4200F0EC
:106D00008B805A4B9F4261D0BAF1804F00F0BA831A
:106D1000574B9A451ED1002D1CDB4046494613B007
:106D2000BDE8F04F18F0C6BF58B106F1404606F571
:106D3000801656EA0B0306D14C49002013B0BDE87B
:106D4000F08FB742CCDD4B4813B0BDE8F04F19F0DF
:106D5000F7BE00244046494617F08EFFBBF1000FF6
:106D600019D126B1414B25F040429A4213D1BAF1D4
:106D7000000FC0F2BC83002DE0DA06F1404606F5B4
:106D8000801656EA040300F08F84012CD6D101F15D
:106D900000431946D2E7ED0F013D54EA05034ED0FA
:106DA000354B9F426EDD03F104739F4240F3E8834D
:106DB000324B9E424EDDBAF1000F4EDD28A3D3E9DF
:106DC00000231046194617F0DDF9B7E7BAF1000FB6
:106DD000C0F23C8440464946B0E7BEF1000F82D085
:106DE000A3E7274B9F4228DCA3F154739F4280DD29
:106DF0003B15A3F2FF33142B40F33E84C3F134035D
:106E00002EFA03F202FA03F39E457FF472AF02F00A
:106E10000102C2F102046DE706F1404303F580135D
:106E200053EA0B0388D0154B9E4240F33283BAF1EC
:106E3000000F12DBDDE9000180E702245AE7424639
:106E40004B464046494616F0E9FF02460B4617F00E
:106E5000C3FA73E7BAF1000FB0DB002000216DE741
:106E60009C7500883CE4377E0000F07F0000F03F16
:106E70000000E03F182802000000E041FFFFEF3F64
:106E8000FFFF3F43B6F5801F4FF0000205DAD44BF9
:106E900017F078F96FF034020E463315D14FC6F370
:106EA0001306A3F2FF33134446F07F5ABE421A463C
:106EB0000D934AF4401A40F32183CB4B9E4240F39A
:106EC000FD83134601330D93C84B0022CDE9062301
:106ED00000270026CDE90867CDE90E67AAF5801ADC
:106EE0000027024653465146CDE90A23DDE9062331
:106EF00016F094FFDDE9062380468946DDE90A01A4
:106F000016F08EFF02460B460020B84917F064FACF
:106F10000A460146CDE9101213464946024640464C
:106F200017F030F94FEA6A0343F000538C4683466A
:106F300003F50023CDE904BCDA468B46D9190023BA
:106F4000CDE902AB0293DDE902AB002006460F4615
:106F500002460B465046594617F014F902460B46B6
:106F60004046494616F05AFFDDE906238046894629
:106F70003046394616F052FF02460B46DDE90A015B
:106F800016F04CFF52465B4617F0FCF802460B46E3
:106F90004046494616F042FFDDE9102317F0F2F8AB
:106FA000DDE90467CDE9060132463B463046394605
:106FB00017F0E8F878A3D3E9002306460F4617F048
:106FC000E1F877A3D3E9002316F02AFF32463B46C7
:106FD00017F0D8F874A3D3E9002316F021FF324646
:106FE0003B4617F0CFF872A3D3E9002316F018FF41
:106FF00032463B4617F0C6F86FA3D3E9002316F0DC
:107000000FFF32463B4617F0BDF86DA3D3E90023CE
:1070100016F006FF3246804689463B4630463946E2
:1070200017F0B0F802460B464046494617F0AAF85A
:10703000524606460F465B46DDE9040116F0F0FEB7
:10704000DDE9062317F09EF832463B4616F0E8FECF
:107050005246804689465B465046594617F092F89C
:107060000022634BCDE90A0116F0DAFE42464B4698
:1070700016F0D6FE02980F46064632463B4650466C
:10708000594617F07FF8002282468B46584B30460F
:10709000394616F0C3FEDDE90A2316F0BFFE0246AC
:1070A0000B464046494616F0B9FEDDE9042317F0C9
:1070B00069F83246804689463B46DDE9060117F00D
:1070C00061F802460B464046494616F0A9FE804646
:1070D000894602460B4650465946CDE904AB16F0A8
:1070E0009FFEDDE902AB38A3D3E9002350460F46EB
:1070F00017F048F8DDE90423CDE90201394650468E
:1071000016F08CFE02460B464046494616F086FEB7
:107110002FA3D3E9002317F035F82FA3D3E90023D9
:10712000804689465046394617F02CF802460B46F1
:107130004046494616F074FEDDE90E2316F070FE57
:1071400080460D98894616F0B7FF424606460F4620
:107150004B46DDE9020116F063FEDDE9082316F077
:107160005FFE32463B4616F05BFE32463B465046DB
:107170008B4616F053FEDDE9082316F04FFEDDE9DD
:10718000022316F04BFE02460B464046494616F0D7
:1071900045FE80462EE000BFEF4E454A287ECA3F9E
:1071A00065DBC9934A86CD3F01411DA96074D13F7B
:1071B0004D268F515555D53FFFAB6FDBB66DDB3F8D
:1071C000033333333333E33F000000E009C7EE3FBE
:1071D000FD033ADC09C7EE3FF5015B14E02F3EBE2C
:1071E000000040438E98030079B60B000000F03F8A
:1071F000000008408946013C54EA0503DDE900012E
:1072000014BFD94CD94C0023CDE9043403460C46B5
:10721000CDE9023400230293DDE9024522462B46E4
:1072200016F0FCFD52465B4616F0ACFFDDE900238C
:1072300006460F464046494616F0A4FF02460B4656
:107240003046394616F0ECFD2246804689462B46EC
:1072500050465946CDE9008916F094FF0B46024688
:1072600006460F464046494616F0DAFDC04B9942A5
:1072700004460D468A4640F3168101F13F4303F56B
:10728000E003034340F0EA81A3A3D3E90023DDE94F
:10729000000116F0C5FD3246804689463B46204631
:1072A000294616F0BBFD02460B464046494617F0FC
:1072B000F9F9002840F0D281A8464FEA28534FF44C
:1072C0008012A3F2FE3342FA03F35344C3F30A528B
:1072D000A84DA2F2FF321541C3F3130423EA0501BE
:1072E0000020C2F1140B44F48014BAF1000F0246DE
:1072F0000B4644FA0BFB30463946B8BFCBF1000BC6
:1073000016F08CFD02460B4606460F46DDE90001ED
:1073100016F086FD4FEA0B5A0D46002480A3D3E9F0
:1073200000232046294616F02DFF32468046894626
:107330003B462046294616F071FD02460B46DDE924
:10734000000116F06BFD78A3D3E9002316F01AFFB5
:1073500077A3D3E9002306460F462046294616F0B8
:1073600011FF02460B463046394616F059FD0646D7
:107370000F4602460B464046494616F051FD42462E
:107380004B4604460D4616F049FD02460B46304674
:10739000394616F043FD2246804689462B46204654
:1073A000294616F0EFFE64A3D3E9002306460F46F4
:1073B00016F0E8FE62A3D3E9002316F02FFD324653
:1073C0003B4616F0DFFE60A3D3E9002316F028FD4C
:1073D00032463B4616F0D6FE5DA3D3E9002316F0F5
:1073E0001DFD32463B4616F0CDFE5BA3D3E90023DC
:1073F00016F016FD32463B4616F0C4FE02460B461A
:107400002046294616F00AFD06460F4602460B4660
:107410002046294616F0B6FE0022CDE900014FF0C5
:1074200080433046394616F0F9FC02460B46DDE94A
:10743000000116F0D1FF424606460F464B46204655
:10744000294616F09FFE42464B4616F0E9FC0246DE
:107450000B463046394616F0E1FC22462B4616F024
:10746000DDFC02460B4600203F4916F0D7FC8A445B
:10747000BAF5801FC0F233815146DDE9042316F0CE
:1074800081FE5BE4424640464B46494616F07AFE92
:1074900054E4BAF1000FBFF6E0ACDDE90034184661
:1074A00004F100414AE4344B21F00048984540F390
:1074B000F280324B0B4403430CD132463B4616F06C
:1074C000ADFC02460B46DDE9000117F0D7F80028B5
:1074D0003FF4F3AEDDE9040121A3D3E9002316F064
:1074E00051FE1FA3D3E9002316F04CFE26E402460A
:1074F0000B4600201C4916F06FFF3CE400220023DD
:10750000CDE90823CDE90E23174B00220027CDE952
:107510000623E6E4AFF30080FE822B654715973C17
:1075200000000000432EE63FEF39FAFE422EE63F10
:10753000396CA80C615C20BED0A4BE726937663E6F
:10754000F16BD2C541BDBB3E2CDE25AF6A56113F63
:1075500093BDBE166CC1663F3E5555555555C53F4A
:1075600059F3F8C21F6EA5010000F03F0000F0BF04
:10757000FFFF8F40FFFF0F00FFCB904000346F3FB5
:107580006B4B9E427FF766AC6A4B9E423FF713AC53
:107590000022684B16F042FC57A3D3E900230646AD
:1075A0000F4616F0EFFD56A3D3E900238046894627
:1075B0003046394616F0E6FD002282468B465E4B89
:1075C0003046394616F0DEFD02460B464EA1D1E9A3
:1075D000000116F023FC32463B4616F0D3FD02466E
:1075E0000B460020554916F019FC3246CDE9020140
:1075F0003B463046394616F0C5FD02460B46DDE9EE
:10760000020116F0BFFD42A3D3E9002316F0BAFD34
:1076100002460B465046594616F000FC02460B4601
:1076200006460F464046494616F0FAFB42464B4690
:10763000002082468B4616F0F1FB02460B46304690
:10764000394616F0EBFB80468946D4E542464B4668
:107650000020384916F0C0FEFFF770BBDDE90401D9
:107660002DA3D3E9002316F08DFD2BA3D3E900232E
:1076700016F088FDFFF762BBBEF1000F7FF469AB27
:10768000C3F1140347FA03F202FA03F39F422AD02C
:107690007446FFF736BB294B98453FF70EAEDDE940
:1076A00002239246934638E602460B4616F0B6FB96
:1076B00002460B4616F090FEFFF740BB18A3D3E935
:1076C0000023CDE9082318A3D3E90023CDE90E2335
:1076D0001B4B00224FF48027CDE9062301E45A46D4
:1076E00001F05AFDC9E602F00102C2F10204FFF7FF
:1076F00008BB00BFAFF30080000000604715F73FF4
:1077000044DF5DF80BAE543E555555555555D53FA4
:10771000FE822B654715F73F9C7500883CE4377E59
:107720000000004003B8E23F06D0CF43EBFD4C3EE3
:10773000FEFFEF3F0000F03F0000D03F0000E03FC1
:107740000000F83F000000002DE9F04F9A4E21F0B4
:107750000047B74291B040F38E809246974A9742D5
:107760000C4626DC00298AA3D3E9002340F3B48128
:1077700016F054FB924B9F4204460D4600F0908059
:1077800085A3D3E9002316F049FB02460B46CAE95C
:1077900000232046294616F041FB7FA3D3E90023AE
:1077A00016F03CFB0125CAE90201284611B0BDE8EC
:1077B000F08F844A974240F39080834A974265DC79
:1077C0003D15A5F21645A7EB055319461F4606467B
:1077D00016F088FF16F070FC8046894602460B467C
:1077E00030463946CDE90A8916F018FB0022774B5E
:1077F00016F0C8FC8946804616F074FF16F05CFC53
:1078000002460B4606460F4640464946CDE90C6700
:1078100016F004FB00226D4B16F0B4FC002200238E
:10782000CDE90E0116F016FF002800F07381002349
:1078300030463946002216F00DFF002814BF012300
:107840000223634A019202212A4600910AA8514666
:1078500000F086FB002C054614DADAF80420DAF88A
:107860000C3002F1004203F100434542CAF8042003
:10787000CAF80C3006E0C2E9000100250024C2E984
:1078800002450025284611B0BDE8F08F02460B46A0
:1078900016F0C4FA0025CAE90201CAE90001F1E7BD
:1078A0003FA3D3E9002316F0B9FA3FA3D3E900239D
:1078B0000D46044616F0B2FA02460B46CAE900230A
:1078C0002946204616F0AAFA37A3D3E9002316F07A
:1078D000A5FA0125CAE90201D4E717F0CDF934A3CE
:1078E000D3E900238046894616F04CFC0022394B30
:1078F00016F096FA16F0F6FE054616F0DDFB24A308
:10790000D3E90023CDE9040116F03CFC02460B4606
:107910004046494616F082FA1FA3D3E90023804669
:107920008946DDE9040116F02DFC1F2DCDE9020189
:1079300054DC294B6A1E53F822309F424ED0024637
:107940000B464046494616F069FA02460B46CAE91C
:10795000002383460E465A4633464046494616F0B3
:107960005DFADDE9022316F059FA002C02460B46B7
:10797000CAE9022386DA5B4606F1004601F10041BE
:107980008AE84800CAF80C10CAF808006D4279E786
:1079900000004054FB21F93F3163621A61B4D03DCD
:1079A0000000601A61B4D03D7370032E8A19A33BA6
:1079B00083C8C96D305FE43FFB21E93F7BD90240BA
:1079C000FB21F93FFB213941FFFFEF7F00007041B0
:1079D000B83902000000E03F38390200DDE9022337
:1079E0004046494616F01AFA3A15C1F30A53D31A1B
:1079F000102B83460E460992CAE90001ABDD58A35D
:107A0000D3E90023DDE9040116F0BCFB06460F466E
:107A100002460B464046494616F000FACDE90601FB
:107A200002460B464046494616F0F8F932463B46B8
:107A300016F0F4F94CA3D3E9002306460F46DDE91E
:107A4000040116F09FFB32463B4616F0E7F9DDE9EC
:107A50000689CDE9020102460B464046494616F02A
:107A6000DDF90B46C1F30A570E460999CF1B0246B2
:107A7000312F8346CAE900236CDD3DA3D3E90023FF
:107A8000DDE9040116F07EFB06460F4602460B4672
:107A900040464946CDE9068916F0C0F902460B4634
:107AA00080468946DDE9060116F0B8F932463B46C4
:107AB00016F0B4F930A3D3E9002306460F46DDE9FA
:107AC000040116F05FFB32463B4616F0A7F902466A
:107AD0000B46CDE9022334E716F0A2F92A4B9F4268
:107AE00004460D4618D026A3D3E9002316F098F9D2
:107AF00002460B46CAE900232946204616F08EF9B5
:107B00001FA3D3E9002316F08BF94FF0FF35CAE924
:107B10000201B7E6032394E611A3D3E9002316F08C
:107B20007FF911A3D3E900230D46044616F078F936
:107B300002460B46CAE900232946204616F06EF994
:107B400009A3D3E9002316F06BF94FF0FF35CAE91A
:107B5000020197E6DDE90689FDE600BFAFF300808C
:107B60000000601A61B4D03D7370032E8A19A33BE4
:107B70000000002E8A19A33BC14920259A837B3936
:107B80003163621A61B4D03DFB21F93F000000006F
:107B9000574A2DE9F84F21F0004890450E46074618
:107BA0002BDC544B0029B4BF534D544D98454FF036
:107BB000000410DC524B98456EDC4BA3D3E9002344
:107BC00016F02EF900224F4B16F06CFDD8B1384656
:107BD0003146BDE8F88F4C4B984579DD4B4B9845C5
:107BE00043DD013398453DD0384631463EA3D3E9C5
:107BF000002316F0C7FABDE8F88F02460B4616F0D0
:107C00000FF9BDE8F88F3846314617F035F801F026
:107C100083F806460F4632463B463046394616F054
:107C2000FFF8324682468B463B463046394616F0D0
:107C3000A9FA002280468946324B3046394616F072
:107C4000EFF802460B464046494616F0C5FB024691
:107C50000B465046594616F0E1F822462B4616F0E0
:107C600091FACEE72A4B9842BED83846314617F0F3
:107C700003F80022214B16F085FAFEF721FC064698
:107C80000F4602460B462046294616F07BFA32463E
:107C90003B4616F077FAB4E716F0EEFF01F03CF839
:107CA0001C4B984506460F46B5DD0022154B16F0D5
:107CB000B7F802460B463046394616F08DFB324681
:107CC0003B4616F0ADF822462B4616F05BFA98E7D5
:107CD00016F0D2FFFEF7F4FB02460B46204629467B
:107CE00016F050FA8DE700BF3374AC3C1F7BAC7FBD
:107CF000FFFFEF7FFFFF35400000E0BF0000E03FE7
:107D0000FFFF2F3E0000F03F412E8640CD338640DE
:107D10007DF8B98FFFFFEF3F2DE9F04F21F00046CE
:107D2000B6F1795F85B00C4692469B4605466BDA04
:107D300016F0D8FC002800F0E8802A4623462846A2
:107D4000214616F01FFA74A3D3E900238046894622
:107D500016F018FA72A3D3E9002316F061F8424630
:107D60004B4616F00FFA70A3D3E9002316F056F82D
:107D700042464B4616F006FA6DA3D3E9002316F0EF
:107D80004FF842464B4616F0FDF96BA3D3E90023AA
:107D900016F044F842464B4616F0F4F968A3D3E9CE
:107DA000002316F03DF842464B4616F0EBF9CDE9BC
:107DB00000010022644B4046494616F0E3F9DDE934
:107DC000002306460F464046494616F0DBF9524668
:107DD000804689465B462846214616F0D3F902467E
:107DE0000B464046494616F019F802460B46304607
:107DF000394616F013F802460B460020534916F098
:107E00000DF805B0BDE8F08F02460B4616F0BAF942
:107E100041A3D3E900238046894616F0B3F940A375
:107E2000D3E9002315F0FCFF42464B4616F0AAF9B1
:107E30003DA3D3E9002315F0F1FF42464B4616F06F
:107E4000A1F93BA3D3E9002315F0EAFF42464B46D4
:107E500016F098F938A3D3E9002315F0DFFF424666
:107E60004B4616F08FF936A3D3E9002315F0D8FF5F
:107E70004B46424616F086F9354B9E42CDE900014D
:107E800097DD344B9E424FF0000238DCA6F500131C
:107E900000202E4916461F4615F0C0FFCDE902010D
:107EA0000022294B4046494616F06CF932463B46C3
:107EB00015F0B4FFDDE9002306460F46404649466B
:107EC00016F060F95246804689465B4628462146B0
:107ED00016F058F902460B464046494615F09EFFFB
:107EE00002460B463046394615F098FF02460B46CF
:107EF000DDE9020115F092FF05B0BDE8F08F164BE9
:107F0000164FCDE902230026CAE71049002005B02C
:107F1000BDE8F08FAFF30080D43888BEE9FAA8BD81
:107F2000C4B1B4BD9EEE213EAD529C804F7E923EC8
:107F30009015CB19A001FA3E7751C1166CC1563F7E
:107F40004C5555555555A53F0000E03F0000F03F0A
:107F50003233D33F0000E93F0000E73F0000D23F4B
:107F60002DE9F04FADF5197D9C4CA29E9C4D54F827
:107F7000264005942646D41E85FB0475E417C4EB01
:107F8000A50424EAE4741D460893631CA3EB830351
:107F9000013D02EBC30304932B4609940295651B34
:107FA000F418039006911AD42C4401340DF178088A
:107FB00000260027DDF88C9208E059F8250016F01D
:107FC0007BF80135A542E8E9020108D0002DF4DA7A
:107FD000013530463946A542E8E90201F6D1059B54
:107FE000002B2EDB089B4FEAC309039BA9F108086D
:107FF000984420AB9944059B70AA02EBC30B0DF586
:10800000DC7A029B002BC0F20F83039B4D46A3F149
:1080100008040026002775E90223F4E9020116F09E
:10802000B1F802460B463046394615F0F9FE444594
:1080300006460F46EFD1EAE90267DA4509F1080979
:10804000DFD10598089A009000F18043013B9B0026
:108050000CAC191F234402F100520B93039B013A0D
:1080600021440A9103EBC20B009A98A901EBC203C9
:10807000002A53E9284513462BDD01EBC308A8F17C
:10808000A8080DF12C090DF5DC7A0022554B20468D
:10809000294616F077F816F025FB16F00DF80022A9
:1080A000514B06460F4616F06DF802460B46204629
:1080B000294615F0B3FE16F015FB78E8022349F8BF
:1080C000040F3946304615F0ABFED04504460D4648
:1080D000DBD1DDF81090204629464A4601F05CF8D5
:1080E00000224FF07F5304460D4616F04BF8FCF784
:1080F000EFFE00223D4B16F045F802460B462046A7
:10810000294615F08BFE0D46044616F0EBFA804624
:1081100015F0D2FF0B4602462946204615F07EFE9A
:108120004B46002B06460F4640F3F780009A0CA9F9
:10813000013AC9F1180351F8225045FA03F101FA46
:1081400003F30CA8EB1A40F82230C9F11705884454
:1081500043FA05F5002D63DD009B002B08F10108B3
:1081600040F381820C9C002C00F018830120002336
:108170000CAAC4F1807442F82340009A824219DDAF
:108180000CAA0CAC52F820106FF07F42511A44F840
:1081900020100099023399420CDD1046009A0CA978
:1081A00001EB830301EB82011A68821A43F8042B66
:1081B0008B42F9D1049B002B1ADD049B012B4FF05D
:1081C000010440F05882009B5A1E0CAB0CA953F8D6
:1081D0002230C3F3160341F8223058E2583E020021
:1081E000ABAAAA2A0000703E0000704100002040A7
:1081F000022D15D132463B460020974915F00EFE60
:1082000006460F46049A9449002000F0C5FF024636
:108210000B463046394615F001FE022506460F464C
:10822000002200233046394616F014FA002800F0E8
:108230005282009A059B501E83420FDC02F180435C
:10824000013B0CAA0B9C02EB8303002253F8041998
:10825000A34242EA0102F9D1002A6FD1059B0CAA80
:10826000013B52F82330002B40F033820A9A01235D
:1082700052F8041901330029FAD0009AD31802F1F8
:10828000010A9A4507933DDC009B0899099A0B4423
:1082900007990AEB0208994620AB08F1804803EBE6
:1082A000C9098B18A39A08F1FF3802EB880870AA55
:1082B00002EBCA0AA39A02EB8303009358F8040F57
:1082C00015F0FAFE029B002BE9E802011DDB039B7F
:1082D0004D46A3F108040026002775E90223F4E9BE
:1082E000020115F04FFF02460B463046394615F0A5
:1082F00097FD5C4506460F46EFD1009B9845EAE89E
:108300000267DBD1079B0093AEE6009B00260027A7
:108310009845EAE80267D1D1F4E706D1009B0CAAA0
:10832000013B52F82350ED1514E700224B4B16F099
:10833000AFF9002840F08281054671E70CA902954B
:1083400051F820300499CDF81C801839024600906D
:1083500004916BB900F18043013B0CA800EB83034F
:1083600053F80409013A18390028F9D00092049111
:10837000049A3949002000F00FFF009B002B0446AF
:108380000D46C0F20382DA0070A901EB020B0492E1
:108390000CAA02EB8306DFF8C8900BF1080704363D
:1083A0004FF0000856F8040D15F086FE22462B46C5
:1083B00015F0E8FE4B4667E9020142462046294691
:1083C00015F0E0FE0CAB9E4204460D46EAD10DF5D9
:1083D000907ACDF80CA0DDF814A04FF00009BAF1A6
:1083E000000FC0F23D81DFF87C805D4618A1D1E925
:1083F000000100260027002403E04C4510DCF8E8CB
:108400000201F5E8022315F0BDFE02460B46304698
:10841000394615F005FD0134A24506460F46ECDA53
:10842000039B03EBC903ABF1080BC3E900676EAB19
:108430005B4509F10109D2D1A29BDDF80CA0032B09
:1084400000F28B80DFE813F0D10090009000100064
:1084500000000040FB21F93F0000F03F0000E03F3A
:108460000000703E70210200009B002B40F3A481AD
:10847000049B0AEB0308D8E90067D34658E9029A3F
:1084800032463B464846514615F0CAFC04460D4666
:1084900002460B464846514615F0C0FC32463B4664
:1084A00015F0BEFCC8E9000168E90245C34526464F
:1084B0002F46E3D1009B012BDA4640F37D81049BDC
:1084C0005B44D3E90067984699460DF5947B59E9DA
:1084D00002343246184621463B46CDE9000115F0EC
:1084E0009FFC04460D4602460B46DDE9000115F0EF
:1084F00095FC32463B4615F093FCC9E9000169E959
:108500000245CB4526462F46E1D1002308F1080855
:108510001D464CAC1846294678E9022315F080FC2C
:10852000444503460D46F5D1029A002A00F0208109
:10853000DAF80440DAF80C20069FDAF80010DAF8CE
:1085400008003B6105F1004504F1004402F10042DE
:108550007D617C60FA603960B860079B03F00700BA
:108560000DF5197DBDE8F08F049C002608345444B5
:1085700033463046194674E9022315F051FC544540
:1085800006460B46F5D1029A30461946002A00F0FD
:10859000DA80069803F10044324644600660DAE966
:1085A000000115F03BFC0B460099002902460EDD48
:1085B000012410461946FAE9022315F031FC0B4656
:1085C00000990134A1420246F3DA029909B103F19C
:1085D00000431946069B1046C3E90201079B03F0BE
:1085E00007000DF5197DBDE8F08F049C00220834CA
:1085F000544413461046194674E9022315F010FC42
:10860000A24502460B46F5D1029909B103F1004398
:108610001946069B1046C3E90001079B03F00700BB
:108620000DF5197DBDE8F08F00260027EAE9026705
:10863000DA4509F108097FF4E4AC02E5009B002B60
:1086400008F10108C8BF02253FF78CAD32463B4612
:108650000020634915F0E2FB022506460F46DFE5E0
:1086600000260027DCE6049B002B26DD0024049B6B
:10867000012B3FF4A8AD022B09D1009B5A1E0CAB75
:108680000CA953F82230C3F3150341F82230022D10
:108690007FF4C6AD32463B460020514915F0BEFB83
:1086A00006460F46002C3FF4BBADABE50099013305
:1086B000994278D1049B002BD9DC022D7FF4B0AD18
:1086C00032463B460020464915F0A8FB06460F46B9
:1086D000A6E50123D1E53946049F02957A4230464A
:1086E000CDF81C8000F058FD00223E4B04460D469C
:1086F00015F0CEFF002862D000223B4B20462946D1
:1087000015F040FD15F0EEFF064615F0D5FC0022F1
:10871000344B15F037FD02460B462046294615F02E
:108720007DFB15F0DFFF00990B4601331A460093DD
:108730003B46183304930B460CA941F8230013461B
:1087400041F8236014E6069B3246C3E900010B465C
:10875000DAE9000115F062FB0B4600990029024698
:108760003FF726AF1946069B1046C3E9020135E7DD
:1087700018462946DAE90023DAE90245069FC7E9E7
:108780000401C7E90023C7E90245E6E6A29B032BE3
:108790003FF6E3AEDFE803F0211C1C0E009B012B2B
:1087A00088DD0CAA012352F8044F002C3FF47EAF61
:1087B000581CDDE40DF5907A00231D46B4E62946E9
:1087C000204615F08FFF009A0CA941F82200CFE552
:1087D000002633460DF5907AD5E60022134613E7BE
:1087E0000000F03F000070410000703E00000000FB
:1087F0002DE9F04F21F00046B6F1795F85B00C46C7
:1088000090469946054604DA15F06CFF002800F002
:1088100085802A4623462846214615F0B3FC0646A5
:108820000F4602460B462846214615F0ABFC3EA3F8
:10883000D3E9002382468B463046394615F0A2FC28
:108840003BA3D3E9002315F0E9FA32463B4615F085
:1088500099FC39A3D3E9002315F0E2FA32463B46EE
:1088600015F090FC36A3D3E9002315F0D7FA324671
:108870003B4615F087FC34A3D3E9002315F0D0FA6A
:108880000E9BCDE900019BB30022334B4046494685
:1088900015F078FCDDE90023CDE902015046594688
:1088A00015F070FC02460B46DDE9020115F0B6FA40
:1088B00032463B4615F066FC42464B4615F0AEFA92
:1088C00023A3D3E9002306460F465046594615F028
:1088D00059FC02460B463046394615F0A1FA0246CD
:1088E0000B462846214615F099FA05B0BDE8F08FF1
:1088F00002460B463046394615F044FC14A3D3E932
:10890000002315F08BFA52465B4615F03BFC2A46D5
:10891000234615F085FA05B0BDE8F08F28462146BC
:1089200005B0BDE8F08F00BF7CD5CF5A3AD9E53D00
:10893000EB9C2B8AE6E55A3E7DFEB157E31DC73E10
:10894000D561C119A0012A3FA6F810111111813F6C
:10895000495555555555C53F0000E03F0000000002
:108960002DE9F04FDA4C21F00046A64287B08A4646
:1089700089461746984683461ADC15F0B3FEA8BB15
:108980005B461E43109B0133334300F0A981109BCB
:10899000012B00F0B9815A4653460020CD4915F00D
:1089A0001BFD04460D462046294607B0BDE8F08F62
:1089B000C94B9E421ADD0029C0F29F815A46534698
:1089C000A5A1D1E9000115F029FA3A46434604462B
:1089D0000D46A3A1D1E9000115F020FA22462B464D
:1089E00015F01EFA002783468A46B8465A46534673
:1089F0005846514615F0C6FB03460C46CDE90034F7
:108A000002460B4615F0BEFBDDE9002304460D4689
:108A10005846514615F0B6FB93A3D3E90023CDE9A0
:108A200002012046294615F0ADFB91A3D3E90023AE
:108A300015F0F6F922462B4615F0A4FB8EA3D3E9D8
:108A4000002315F0EDF922462B4615F09BFB8CA375
:108A5000D3E9002315F0E4F922462B4615F092FBEA
:108A600089A3D3E9002315F0DBF922462B4615F044
:108A700089FB87A3D3E9002315F0D2F9DDE90023B0
:108A800015F080FB84A3D3E90023CDE9040120463F
:108A9000294615F077FB82A3D3E9002315F0C0F92E
:108AA00022462B4615F06EFB7FA3D3E9002315F079
:108AB000B7F922462B4615F065FB7DA3D3E90023C9
:108AC00015F0AEF922462B4615F05CFB7AA3D3E9EC
:108AD000002315F0A5F922462B4615F053FB78A389
:108AE000D3E9002315F09CF902460B46DDE90401A9
:108AF00015F096F9DDE9022315F044FB3A464346AA
:108B000015F08EF9DDE9002315F03CFB02460B461B
:108B10003846414615F084F96BA3D3E90023044697
:108B20000D46DDE9020115F02DFB22462B4615F01E
:108B300077F90B46024651465846CDE9002315F019
:108B40006FF9654B9E4204460D463EDC109B012B9F
:108B500036D002460B4600205E4915F03DFC00244D
:108B60000F4606465A4653462046294615F056F902
:108B7000A04602460B46DDE9000115F04FF94246DA
:108B80003B4615F0FFFAA94604460D4642463B46D1
:108B90004046494615F0F6FA0022504B15F040F9D0
:108BA00002460B462046294615F03AF932463B4626
:108BB00015F0E8FA42463B4615F032F904460D46F8
:108BC0002046294607B0BDE8F08F109815F074FADA
:108BD000224606460F462B462046294615F0D2FA75
:108BE0003246CDE902013B462046294615F018F9E8
:108BF00002460B46DDE9020115F0EEFBDDE900233C
:108C000015F00CF902460B465846514615F006F988
:108C100002460B4615F004F902460B46304639462B
:108C200015F0FCF804464FEAA97000F00200C0F10C
:108C300001000D4615F040FA02460B462046294633
:108C400015F0A0FA04460D462046294607B0BDE8B7
:108C5000F08F00BFAFF30080182D4454FB21E93F93
:108C6000075C143326A6813CD47ABF74702AFB3E7D
:108C7000E9A7F0320FB8123F68108D1AF726303F7F
:108C80001583E0FEC8DB573F93846EE9E326823FFD
:108C9000FE41B31BBAA1AB3F735360DBCB75F3BE90
:108CA000A69237A0887E143F0165F2F2D844433F74
:108CB000280356C9226D6D3F37D60684F464963F6B
:108CC0007AFE10111111C13F635555555555D53FC9
:108CD000FFFF2F3E0000F0BF2794E53F0000F03F6C
:108CE0005846514615F0C8FF02460B460020084979
:108CF00015F072FB04460D4662E701F1004308F1EE
:108D0000004883469A4659E65C46554658E700BFF8
:108D10000000F03F000000002DE9F04FD24A21F0A2
:108D20000043934285B00C460E4605462DD9CF4AE6
:108D300093421AD8002E80F21681B5A3D3E90023FE
:108D40002846214615F06CF80022002315F08CFC13
:108D5000C0B9B1A3D3E900232846214615F012FA81
:108D600002460B460020C24908E1C24A934240F243
:108D7000D0800346C1F31302134340F0F68100296B
:108D800080F2C4800020BC49C0E0BC4A934200F29B
:108D90002981BB4A934240F2DE80002301930022E6
:108DA000B84B2846214615F0EDF906460F46024617
:108DB0000B462846214615F0E5F999A3D3E900238F
:108DC00082468B4615F0DEF997A3D3E9002315F010
:108DD00027F852465B4615F0D5F995A3D3E9002351
:108DE00015F01CF852465B4615F0CCF992A3D3E976
:108DF000002315F015F852465B4615F0C3F990A311
:108E0000D3E9002315F00AF852465B4615F0BAF98B
:108E100000229D4B15F004F88046894602460B4619
:108E20003046394615F0AEF902460B460020974908
:108E300014F0F4FF064602460B460F4640464946EC
:108E400014F0ECFF3246804689463B4628462146D0
:108E500015F098F902460B4600208D4914F0DEFF0C
:108E600002460B464046494615F0B6FA52465B4666
:108E700015F088F9019E02460B46002E38D0DDE938
:108E8000026732463B4614F0C9FF2A46234615F0D6
:108E900079F932463B4614F0C1FF5B46524614F066
:108EA000BDFF019B013306460F4600F00F81019B79
:108EB000012B00F0F180019B0133392B39D8019B44
:108EC000132B40F31281019FC7F57F7603360022F2
:108ED000330514F0A5FF02460B462846214614F040
:108EE0009DFF0022684B14F09BFF01EB07510DE042
:108EF0002846214615F046F952465B4614F08EFF8F
:108F000002460B462846214614F088FF05B0BDE80E
:108F1000F08F4DA3D3E9002315F0C4FB00283FF4E4
:108F200009AF4BA3D3E900231046194615F02AF9DF
:108F3000ECE72A46234614F071FF02460B46002058
:108F4000514914F06BFF019A4F4B01EB0251002283
:108F500014F064FFDAE73EA3D3E9002314F060FFC6
:108F600002460B46CAE72CA3D3E900232846214634
:108F700015F008F90B4643490246002014F050FF53
:108F800015F0B0FB019015F097F833A3D3E9002357
:108F900006460F4615F0F6F802460B4628462146CF
:108FA00014F03CFF2EA3D3E90023804689463046C7
:108FB000394615F0E7F806460F4632463B4640462E
:108FC000494614F02BFF02460B4605460C46404628
:108FD000494614F023FF32463B4614F01FFFCDE90B
:108FE0000201DCE62B4A934200F2978000291AA383
:108FF000D3E90023C0F2AE8014F010FF01238046B5
:109000008946019316A7D7E90067D6E7AFF300803A
:1090100059F3F8C21F6EA501FE822B654715F73F75
:109020002DC3096EB7FD8ABE3952E686CACFD03E3F
:10903000B7DBAA9E19CE143F8555FE19A0015A3FF1
:10904000F41011111111A13FEF39FAFE422E8640A2
:109050009C7500883CE4377E0000E0FE422EE63F2F
:10906000763C7935EF39EA3D79684340412E8640B8
:109070000000E0BFFFFFEF7F0000F0BF422ED63FB1
:10908000FFFF8F3C0000E03F0000F03F0000084081
:1090900000001840B1A2F03F2846214600223A4B7A
:1090A00015F0E2FA002846D0284621460022374B28
:1090B00014F0B6FE02460B463046394614F0AEFEBA
:1090C00000224FF0404315F05DF81FE732463B4663
:1090D0002846214614F0A2FE00222C4B15F052F82F
:1090E00000222A4B14F09AFE10E7019E4FF4001E56
:1090F0004EFA06FE2A462346CEF17F5714F08EFE26
:10910000002607F5401702460B463046394614F054
:1091100085FE019E01EB0651F8E617A3D3E9002373
:1091200015F030F8002C02460B464FF00000FFF619
:109130001AAE164922E732463B462846214614F02D
:109140006DFE02460B4614F06BFE0022104B14F02D
:1091500067FEDBE614F064FE4FF0FF33804689467D
:10916000019307A7D7E9006727E702460B4614F0EB
:1091700057FECBE6AFF30080FE822B654715F73F25
:10918000763C7935EF39EABD0000D0BF0000E03F02
:109190000000F03F00000000F8B5C1F30A56044695
:1091A0000D460B4617460EBB21F00043034386468F
:1091B00025D00022344B14F0E5FF344A9742044690
:1091C0000D460B462ADBC1F30A56363E3E4440F2BA
:1091D000FE72964228DC002E12DD23F0FF4323F4BA
:1091E000E00343EA065520462946F8BD40F2FF72E7
:1091F0009642EBD102460B4614F012FEF8BDF8BDC4
:1092000016F1350F1DDA4CF250339F4222462B46A1
:1092100025DC19A1D1E9000117F0C4FD16A3D3E99B
:10922000002314F0AFFFF8BD22462B4614A1D1E96C
:10923000000117F0B7FD12A3D3E9002314F0A2FF39
:10924000F8BD23F0FF4323F4E003363643EA065526
:109250002046294600220E4B14F094FFF8BD08A1C9
:10926000D1E9000117F09EFD05A3D3E9002314F016
:1092700089FFF8BDAFF3008059F3F8C21F6EA50156
:109280009C7500883CE4377E00005043B03CFFFFF3
:109290000000903C10B5054C237833B9044B13B152
:1092A0000448AFF300800123237010BD2802002082
:1092B00000000000E43F02000C4B43B10C480D4994
:1092C00010B5AFF300800C48036823B910BD0A48FD
:1092D000036833B97047094B002BF7D0BDE8104045
:1092E0001847064B002BF5D0184700BF00000000C0
:1092F000E43F02002C020020E43F020000000000D6
:1093000070B504460E4600F05BFA88B10368DB6A6C
:1093100005469847082C0CD0A4F10903012B14D959
:109320003246214610230D20BDE8704004F0C8BA33
:1093300070BD2B6828465B6A98470228F0DC2B68D2
:1093400028461B6A04219847EAE72B6828465B6A8F
:1093500098470528E4DC2B6828461B6A08219847B3
:10936000DEE700BF30B52DED028B83B0054600F07F
:1093700027FA044640B10368DB6A9847032D50D8AA
:10938000DFE805F0373F47080190019803B0BDECD6
:10939000028B30BD20460CF051FB07EE900A2046B0
:1093A000F8EEE78A0CF05AFB07EE900A2046B8EE7A
:1093B000E78A0CF063FB68EE087A07EE100AE8EE25
:1093C000A87AB8EEC77AE7EE077AF5EE407AF1EEC2
:1093D00010FAB1EEE78A03D517EE900A16F002FBF9
:1093E000FDEEC87ACDED017A019803B0BDEC028B99
:1093F00030BD204603B0BDEC028BBDE830400CF020
:109400001DBB204603B0BDEC028BBDE830400CF024
:1094100025BB204603B0BDEC028BBDE830400CF00C
:109420002DBB00230193B0E738B5054600F0C8F91D
:1094300058B10368DB6A0446984745B1012D04D151
:109440002046BDE83840FBF763B9002038BD204610
:10945000BDE83840FBF73CB910B5044600F0B0F960
:1094600028B1036821461B6ABDE81040184710BDAB
:109470000048704716FCFFFF704700BF10B5034B54
:10948000036004460CF0BAF8204610BD903002008C
:1094900010B5054B036004460CF0B0F8204618F0F8
:1094A0001DF9204610BD00BF903002002DE9F043A9
:1094B000B64F3C6885B01CB1204605B0BDE8F083CE
:1094C0004FF0FF31012001F0E9FC05F021F8002800
:1094D00000F0E7800C2018F003F903210546512025
:1094E00001F0DCFCDFF8D4E2A94B064606F00F08D9
:1094F000C6F3031916F4807618BF7346A548414693
:109500004A460BF037FA321C18BF01224B4641463F
:1095100028460FF03DFBA048AC600BF02BFA4FF053
:10952000FF31032001F0BAFC04F0F2FF4FF0FF31ED
:109530000446022001F0B2FC04F0EAFF002C00F027
:109540009980002800F096800146204604F0FAFD3C
:109550000646002800F0A1804FF0FF31462001F0C0
:109560009DFC322880462DD02ADD382869D0682815
:1095700040D14FF0FF31012001F090FC04F0C8FF12
:1095800081464C2018F0ACF80523044601934A4666
:10959000CDF8008031462B460DF058FF2046A860DC
:1095A00003689B6A9847A8680368DB6A98477B480A
:1095B0000BF0E0F92C4620463D6005B0BDE8F08395
:1095C000302817D14FF0FF31012001F067FC04F083
:1095D0009FFF81464C2018F083F81FFA88F104465B
:1095E00005234A460091019331462B460DF010FDAC
:1095F0002046D4E732680124002301940094D2F875
:109600002080AB600F220DF10F0332213046C0479E
:10961000002848D14FF03208414661480BF0AAF9C2
:109620004FF0FF31012001F039FC04F071FF814659
:109630004C2018F055F8052304464A46CDF8008022
:10964000D1E74FF0FF31012001F028FC04F060FF6A
:109650008146442018F044F8052304464A46CDF8D4
:109660000080314601932B460DF048FE4D4B2360A0
:10967000204694E74C480BF07DF94FF0FF3119205C
:1096800001F00CFC04F044FF4FF0FF3104461820B9
:1096900001F004FC04F03CFF56E744480BF06AF983
:1096A00088E73C6808E7336801940094D3F8208089
:1096B0000F220DF10F0330213046C04718B94FF08B
:1096C00030084146A9E7336801940094D3F820801C
:1096D0000D220DF10F0338213046C047B8B93821AB
:1096E0002F480BF047F94FF0FF31204601F0D6FB31
:1096F00004F00EFF8046442017F0F2FF4FF0050EF5
:1097000038230446424631468DE80840ABE73268CC
:1097100001940094D2F820800DF10F037522682186
:109720003046C047D8B968211D480BF023F94FF0E7
:10973000FF31204601F0B2FB04F0EAFE80464C20E7
:1097400017F0CEFF4FF0050E682304468DE8084061
:10975000424631462B460DF079FE20461FE714485D
:109760000BF008F9A86800287FF41AAF4FF0FF311A
:10977000032001F093FB04F0CBFE18B10D480BF071
:10978000F9F817E70C480BF0F5F813E7440200204E
:10979000FC2102000422020024220200BC2202005A
:1097A000E0220200C021020034220200482202000E
:1097B000CC220200602202009C220200F42102005E
:1097C00008B5FFF773FE00B1806808BD08B501F069
:1097D0008DFCFBF741FEBDE8084001F0C3B900BFB6
:1097E00008B501F083FCFBF7A7FEBDE8084001F0D7
:1097F000B9B900BF08B501F079FC15F0B3FABDE8BE
:10980000084001F0AFB900BF08B501F06FFC16F0D9
:1098100025F8BDE8084001F0A5B900BF08B501F082
:1098200065FCFBF729FEBDE8084001F09BB900BFCD
:1098300008B501F05BFC15F0C7FCBDE8084001F07D
:1098400091B900BF08B501F051FCFBF765F8BDE820
:10985000084001F087B900BF08B501F047FC15F0DA
:1098600007FCBDE8084001F07DB900BF70B5049E5B
:1098700096420C4628DB15466BB1002A00EB02012C
:1098800007DD2046A21811F8013D00F8013B904287
:10989000F9D1002070BD042A0FD0022A02D110F0A5
:1098A000010306D001462A46204606F0C3FE0020EA
:1098B00070BD02880A80184670BD10F00303F1D114
:1098C00002680A60184670BD0846002108F094F846
:1098D0004FF0FF3070BD00BF0830704740B1002925
:1098E00005DB4368994202DA0844007A7047002099
:1098F000704700BF30B1002904DB43689942BCBF08
:1099000040180272704700BF40B1002905DB436870
:10991000994202DA0844007A70470020704700BF7D
:10992000830705D120B1030F0CBF01200020704731
:109930000120704730B1002904DB43689942BCBF65
:1099400040180272704700BF002B23DB002921DB87
:1099500070B54668B1421ADC5568761A1446EA1AA0
:10996000B242A8BF3246002A11DB84420D4607D01E
:10997000083408300844E11806F05CFE002070BD91
:109980000834E118601917F0E5FE002070BD4FF0B3
:10999000FF3070BD4FF0FF30704700BF4068704728
:1099A00010B4141E10DB426894420DDC33EA23032A
:1099B00028BF1346121B08309A422044A8BF1A46FB
:1099C0005DF8044B08F018B85DF8044B704700BF11
:1099D00043688B4210B400F108041846A8BF08463B
:1099E00032EA220128BF19461B1A99422044A8BF17
:1099F00019465DF8044B00F0ABBE00BF002BBCBFA6
:109A000043689B1A002A70B50E4622DB44689918F9
:109A1000A1421EDC8A421CDCDBB136F0004118D0CA
:109A200059428E4213DDB34211DD0830002E00EBA7
:109A3000020516DB9C1B2246A919284617F08AFE50
:109A4000324628190021BDE8704007F0D5BF002C30
:109A500000DA70BD224608300021BDE8704007F0F2
:109A6000CBBF74429A192946281917F073FE224673
:109A700028460021BDE8704007F0BEBF034608300D
:109A8000596800F0E5BD00BF70B50446002061686C
:109A9000490000F059FD6668002E11DD094D04F102
:109AA000080100EB4606034611F8012B141102F0E1
:109AB0000F022C5DAA5C9C71DA7102339E42F3D1D5
:109AC00070BD00BFF4220200002BBCBF43689B1A8C
:109AD000002A2FDB70B445689C18AC4229DCA242F6
